{
	"SendingEther.sol": {
		"ReceiveEther": {
			"abi": [
				{
					"stateMutability": "nonpayable",
					"type": "fallback"
				},
				{
					"inputs": [],
					"name": "caller",
					"outputs": [
						{
							"internalType": "string",
							"name": "",
							"type": "string"
						}
					],
					"stateMutability": "view",
					"type": "function"
				},
				{
					"inputs": [],
					"name": "deposit",
					"outputs": [],
					"stateMutability": "nonpayable",
					"type": "function"
				},
				{
					"inputs": [],
					"name": "getBalance",
					"outputs": [
						{
							"internalType": "uint256",
							"name": "",
							"type": "uint256"
						}
					],
					"stateMutability": "view",
					"type": "function"
				},
				{
					"stateMutability": "payable",
					"type": "receive"
				}
			],
			"devdoc": {
				"kind": "dev",
				"methods": {},
				"version": 1
			},
			"evm": {
				"assembly": "    /* \"SendingEther.sol\":58:378  contract ReceiveEther {... */\n  mstore(0x40, 0x80)\n  callvalue\n  dup1\n  iszero\n  tag_1\n  jumpi\n  0x00\n  dup1\n  revert\ntag_1:\n  pop\n  dataSize(sub_0)\n  dup1\n  dataOffset(sub_0)\n  0x00\n  codecopy\n  0x00\n  return\nstop\n\nsub_0: assembly {\n        /* \"SendingEther.sol\":58:378  contract ReceiveEther {... */\n      mstore(0x40, 0x80)\n      jumpi(tag_1, lt(calldatasize, 0x04))\n      shr(0xe0, calldataload(0x00))\n      dup1\n      0x12065fe0\n      eq\n      tag_3\n      jumpi\n      dup1\n      0xd0e30db0\n      eq\n      tag_4\n      jumpi\n      dup1\n      0xfc9c8d39\n      eq\n      tag_5\n      jumpi\n      jump(tag_2)\n    tag_1:\n      jumpi(tag_2, calldatasize)\n        /* \"SendingEther.sol\":150:168  caller = \"receive\" */\n      mload(0x40)\n      dup1\n      0x40\n      add\n      0x40\n      mstore\n      dup1\n      0x07\n      dup2\n      mstore\n      0x20\n      add\n      0x7265636569766500000000000000000000000000000000000000000000000000\n      dup2\n      mstore\n      pop\n        /* \"SendingEther.sol\":150:156  caller */\n      0x00\n        /* \"SendingEther.sol\":150:168  caller = \"receive\" */\n      swap1\n      dup2\n      tag_8\n      swap2\n      swap1\n      tag_9\n      jump\t// in\n    tag_8:\n      stop\n        /* \"SendingEther.sol\":58:378  contract ReceiveEther {... */\n    tag_2:\n      callvalue\n      dup1\n      iszero\n      tag_10\n      jumpi\n      0x00\n      dup1\n      revert\n    tag_10:\n      pop\n        /* \"SendingEther.sol\":212:231  caller = \"fallback\" */\n      mload(0x40)\n      dup1\n      0x40\n      add\n      0x40\n      mstore\n      dup1\n      0x08\n      dup2\n      mstore\n      0x20\n      add\n      0x66616c6c6261636b000000000000000000000000000000000000000000000000\n      dup2\n      mstore\n      pop\n        /* \"SendingEther.sol\":212:218  caller */\n      0x00\n        /* \"SendingEther.sol\":212:231  caller = \"fallback\" */\n      swap1\n      dup2\n      tag_13\n      swap2\n      swap1\n      tag_9\n      jump\t// in\n    tag_13:\n      stop\n        /* \"SendingEther.sol\":282:376  function getBalance() public view returns (uint) {... */\n    tag_3:\n      callvalue\n      dup1\n      iszero\n      tag_14\n      jumpi\n      0x00\n      dup1\n      revert\n    tag_14:\n      pop\n      tag_15\n      tag_16\n      jump\t// in\n    tag_15:\n      mload(0x40)\n      tag_17\n      swap2\n      swap1\n      tag_18\n      jump\t// in\n    tag_17:\n      mload(0x40)\n      dup1\n      swap2\n      sub\n      swap1\n      return\n        /* \"SendingEther.sol\":243:276  function deposit()public {... */\n    tag_4:\n      callvalue\n      dup1\n      iszero\n      tag_19\n      jumpi\n      0x00\n      dup1\n      revert\n    tag_19:\n      pop\n      tag_20\n      tag_21\n      jump\t// in\n    tag_20:\n      stop\n        /* \"SendingEther.sol\":86:106  string public caller */\n    tag_5:\n      callvalue\n      dup1\n      iszero\n      tag_22\n      jumpi\n      0x00\n      dup1\n      revert\n    tag_22:\n      pop\n      tag_23\n      tag_24\n      jump\t// in\n    tag_23:\n      mload(0x40)\n      tag_25\n      swap2\n      swap1\n      tag_26\n      jump\t// in\n    tag_25:\n      mload(0x40)\n      dup1\n      swap2\n      sub\n      swap1\n      return\n        /* \"SendingEther.sol\":282:376  function getBalance() public view returns (uint) {... */\n    tag_16:\n        /* \"SendingEther.sol\":325:329  uint */\n      0x00\n        /* \"SendingEther.sol\":348:369  address(this).balance */\n      selfbalance\n        /* \"SendingEther.sol\":341:369  return address(this).balance */\n      swap1\n      pop\n        /* \"SendingEther.sol\":282:376  function getBalance() public view returns (uint) {... */\n      swap1\n      jump\t// out\n        /* \"SendingEther.sol\":243:276  function deposit()public {... */\n    tag_21:\n      jump\t// out\n        /* \"SendingEther.sol\":86:106  string public caller */\n    tag_24:\n      0x00\n      dup1\n      sload\n      tag_29\n      swap1\n      tag_30\n      jump\t// in\n    tag_29:\n      dup1\n      0x1f\n      add\n      0x20\n      dup1\n      swap2\n      div\n      mul\n      0x20\n      add\n      mload(0x40)\n      swap1\n      dup2\n      add\n      0x40\n      mstore\n      dup1\n      swap3\n      swap2\n      swap1\n      dup2\n      dup2\n      mstore\n      0x20\n      add\n      dup3\n      dup1\n      sload\n      tag_31\n      swap1\n      tag_30\n      jump\t// in\n    tag_31:\n      dup1\n      iszero\n      tag_32\n      jumpi\n      dup1\n      0x1f\n      lt\n      tag_33\n      jumpi\n      0x0100\n      dup1\n      dup4\n      sload\n      div\n      mul\n      dup4\n      mstore\n      swap2\n      0x20\n      add\n      swap2\n      jump(tag_32)\n    tag_33:\n      dup3\n      add\n      swap2\n      swap1\n      0x00\n      mstore\n      keccak256(0x00, 0x20)\n      swap1\n    tag_34:\n      dup2\n      sload\n      dup2\n      mstore\n      swap1\n      0x01\n      add\n      swap1\n      0x20\n      add\n      dup1\n      dup4\n      gt\n      tag_34\n      jumpi\n      dup3\n      swap1\n      sub\n      0x1f\n      and\n      dup3\n      add\n      swap2\n    tag_32:\n      pop\n      pop\n      pop\n      pop\n      pop\n      dup2\n      jump\t// out\n        /* \"#utility.yul\":7:106   */\n    tag_35:\n        /* \"#utility.yul\":59:65   */\n      0x00\n        /* \"#utility.yul\":93:98   */\n      dup2\n        /* \"#utility.yul\":87:99   */\n      mload\n        /* \"#utility.yul\":77:99   */\n      swap1\n      pop\n        /* \"#utility.yul\":7:106   */\n      swap2\n      swap1\n      pop\n      jump\t// out\n        /* \"#utility.yul\":112:292   */\n    tag_36:\n        /* \"#utility.yul\":160:237   */\n      0x4e487b7100000000000000000000000000000000000000000000000000000000\n        /* \"#utility.yul\":157:158   */\n      0x00\n        /* \"#utility.yul\":150:238   */\n      mstore\n        /* \"#utility.yul\":257:261   */\n      0x41\n        /* \"#utility.yul\":254:255   */\n      0x04\n        /* \"#utility.yul\":247:262   */\n      mstore\n        /* \"#utility.yul\":281:285   */\n      0x24\n        /* \"#utility.yul\":278:279   */\n      0x00\n        /* \"#utility.yul\":271:286   */\n      revert\n        /* \"#utility.yul\":298:478   */\n    tag_37:\n        /* \"#utility.yul\":346:423   */\n      0x4e487b7100000000000000000000000000000000000000000000000000000000\n        /* \"#utility.yul\":343:344   */\n      0x00\n        /* \"#utility.yul\":336:424   */\n      mstore\n        /* \"#utility.yul\":443:447   */\n      0x22\n        /* \"#utility.yul\":440:441   */\n      0x04\n        /* \"#utility.yul\":433:448   */\n      mstore\n        /* \"#utility.yul\":467:471   */\n      0x24\n        /* \"#utility.yul\":464:465   */\n      0x00\n        /* \"#utility.yul\":457:472   */\n      revert\n        /* \"#utility.yul\":484:804   */\n    tag_30:\n        /* \"#utility.yul\":528:534   */\n      0x00\n        /* \"#utility.yul\":565:566   */\n      0x02\n        /* \"#utility.yul\":559:563   */\n      dup3\n        /* \"#utility.yul\":555:567   */\n      div\n        /* \"#utility.yul\":545:567   */\n      swap1\n      pop\n        /* \"#utility.yul\":612:613   */\n      0x01\n        /* \"#utility.yul\":606:610   */\n      dup3\n        /* \"#utility.yul\":602:614   */\n      and\n        /* \"#utility.yul\":633:651   */\n      dup1\n        /* \"#utility.yul\":623:704   */\n      tag_64\n      jumpi\n        /* \"#utility.yul\":689:693   */\n      0x7f\n        /* \"#utility.yul\":681:687   */\n      dup3\n        /* \"#utility.yul\":677:694   */\n      and\n        /* \"#utility.yul\":667:694   */\n      swap2\n      pop\n        /* \"#utility.yul\":623:704   */\n    tag_64:\n        /* \"#utility.yul\":751:753   */\n      0x20\n        /* \"#utility.yul\":743:749   */\n      dup3\n        /* \"#utility.yul\":740:754   */\n      lt\n        /* \"#utility.yul\":720:738   */\n      dup2\n        /* \"#utility.yul\":717:755   */\n      sub\n        /* \"#utility.yul\":714:798   */\n      tag_65\n      jumpi\n        /* \"#utility.yul\":770:788   */\n      tag_66\n      tag_37\n      jump\t// in\n    tag_66:\n        /* \"#utility.yul\":714:798   */\n    tag_65:\n        /* \"#utility.yul\":535:804   */\n      pop\n        /* \"#utility.yul\":484:804   */\n      swap2\n      swap1\n      pop\n      jump\t// out\n        /* \"#utility.yul\":810:951   */\n    tag_38:\n        /* \"#utility.yul\":859:863   */\n      0x00\n        /* \"#utility.yul\":882:885   */\n      dup2\n        /* \"#utility.yul\":874:885   */\n      swap1\n      pop\n        /* \"#utility.yul\":905:908   */\n      dup2\n        /* \"#utility.yul\":902:903   */\n      0x00\n        /* \"#utility.yul\":895:909   */\n      mstore\n        /* \"#utility.yul\":939:943   */\n      0x20\n        /* \"#utility.yul\":936:937   */\n      0x00\n        /* \"#utility.yul\":926:944   */\n      keccak256\n        /* \"#utility.yul\":918:944   */\n      swap1\n      pop\n        /* \"#utility.yul\":810:951   */\n      swap2\n      swap1\n      pop\n      jump\t// out\n        /* \"#utility.yul\":957:1050   */\n    tag_39:\n        /* \"#utility.yul\":994:1000   */\n      0x00\n        /* \"#utility.yul\":1041:1043   */\n      0x20\n        /* \"#utility.yul\":1036:1038   */\n      0x1f\n        /* \"#utility.yul\":1029:1034   */\n      dup4\n        /* \"#utility.yul\":1025:1039   */\n      add\n        /* \"#utility.yul\":1021:1044   */\n      div\n        /* \"#utility.yul\":1011:1044   */\n      swap1\n      pop\n        /* \"#utility.yul\":957:1050   */\n      swap2\n      swap1\n      pop\n      jump\t// out\n        /* \"#utility.yul\":1056:1163   */\n    tag_40:\n        /* \"#utility.yul\":1100:1108   */\n      0x00\n        /* \"#utility.yul\":1150:1155   */\n      dup3\n        /* \"#utility.yul\":1144:1148   */\n      dup3\n        /* \"#utility.yul\":1140:1156   */\n      shl\n        /* \"#utility.yul\":1119:1156   */\n      swap1\n      pop\n        /* \"#utility.yul\":1056:1163   */\n      swap3\n      swap2\n      pop\n      pop\n      jump\t// out\n        /* \"#utility.yul\":1169:1562   */\n    tag_41:\n        /* \"#utility.yul\":1238:1244   */\n      0x00\n        /* \"#utility.yul\":1288:1289   */\n      0x08\n        /* \"#utility.yul\":1276:1286   */\n      dup4\n        /* \"#utility.yul\":1272:1290   */\n      mul\n        /* \"#utility.yul\":1311:1408   */\n      tag_71\n        /* \"#utility.yul\":1341:1407   */\n      0xffffffffffffffffffffffffffffffffffffffffffffffffffffffffffffffff\n        /* \"#utility.yul\":1330:1339   */\n      dup3\n        /* \"#utility.yul\":1311:1408   */\n      tag_40\n      jump\t// in\n    tag_71:\n        /* \"#utility.yul\":1429:1468   */\n      tag_72\n        /* \"#utility.yul\":1459:1467   */\n      dup7\n        /* \"#utility.yul\":1448:1457   */\n      dup4\n        /* \"#utility.yul\":1429:1468   */\n      tag_40\n      jump\t// in\n    tag_72:\n        /* \"#utility.yul\":1417:1468   */\n      swap6\n      pop\n        /* \"#utility.yul\":1501:1505   */\n      dup1\n        /* \"#utility.yul\":1497:1506   */\n      not\n        /* \"#utility.yul\":1490:1495   */\n      dup5\n        /* \"#utility.yul\":1486:1507   */\n      and\n        /* \"#utility.yul\":1477:1507   */\n      swap4\n      pop\n        /* \"#utility.yul\":1550:1554   */\n      dup1\n        /* \"#utility.yul\":1540:1548   */\n      dup7\n        /* \"#utility.yul\":1536:1555   */\n      and\n        /* \"#utility.yul\":1529:1534   */\n      dup5\n        /* \"#utility.yul\":1526:1556   */\n      or\n        /* \"#utility.yul\":1516:1556   */\n      swap3\n      pop\n        /* \"#utility.yul\":1245:1562   */\n      pop\n      pop\n        /* \"#utility.yul\":1169:1562   */\n      swap4\n      swap3\n      pop\n      pop\n      pop\n      jump\t// out\n        /* \"#utility.yul\":1568:1645   */\n    tag_42:\n        /* \"#utility.yul\":1605:1612   */\n      0x00\n        /* \"#utility.yul\":1634:1639   */\n      dup2\n        /* \"#utility.yul\":1623:1639   */\n      swap1\n      pop\n        /* \"#utility.yul\":1568:1645   */\n      swap2\n      swap1\n      pop\n      jump\t// out\n        /* \"#utility.yul\":1651:1711   */\n    tag_43:\n        /* \"#utility.yul\":1679:1682   */\n      0x00\n        /* \"#utility.yul\":1700:1705   */\n      dup2\n        /* \"#utility.yul\":1693:1705   */\n      swap1\n      pop\n        /* \"#utility.yul\":1651:1711   */\n      swap2\n      swap1\n      pop\n      jump\t// out\n        /* \"#utility.yul\":1717:1859   */\n    tag_44:\n        /* \"#utility.yul\":1767:1776   */\n      0x00\n        /* \"#utility.yul\":1800:1853   */\n      tag_76\n        /* \"#utility.yul\":1818:1852   */\n      tag_77\n        /* \"#utility.yul\":1827:1851   */\n      tag_78\n        /* \"#utility.yul\":1845:1850   */\n      dup5\n        /* \"#utility.yul\":1827:1851   */\n      tag_42\n      jump\t// in\n    tag_78:\n        /* \"#utility.yul\":1818:1852   */\n      tag_43\n      jump\t// in\n    tag_77:\n        /* \"#utility.yul\":1800:1853   */\n      tag_42\n      jump\t// in\n    tag_76:\n        /* \"#utility.yul\":1787:1853   */\n      swap1\n      pop\n        /* \"#utility.yul\":1717:1859   */\n      swap2\n      swap1\n      pop\n      jump\t// out\n        /* \"#utility.yul\":1865:1940   */\n    tag_45:\n        /* \"#utility.yul\":1908:1911   */\n      0x00\n        /* \"#utility.yul\":1929:1934   */\n      dup2\n        /* \"#utility.yul\":1922:1934   */\n      swap1\n      pop\n        /* \"#utility.yul\":1865:1940   */\n      swap2\n      swap1\n      pop\n      jump\t// out\n        /* \"#utility.yul\":1946:2215   */\n    tag_46:\n        /* \"#utility.yul\":2056:2095   */\n      tag_81\n        /* \"#utility.yul\":2087:2094   */\n      dup4\n        /* \"#utility.yul\":2056:2095   */\n      tag_44\n      jump\t// in\n    tag_81:\n        /* \"#utility.yul\":2117:2208   */\n      tag_82\n        /* \"#utility.yul\":2166:2207   */\n      tag_83\n        /* \"#utility.yul\":2190:2206   */\n      dup3\n        /* \"#utility.yul\":2166:2207   */\n      tag_45\n      jump\t// in\n    tag_83:\n        /* \"#utility.yul\":2158:2164   */\n      dup5\n        /* \"#utility.yul\":2151:2155   */\n      dup5\n        /* \"#utility.yul\":2145:2156   */\n      sload\n        /* \"#utility.yul\":2117:2208   */\n      tag_41\n      jump\t// in\n    tag_82:\n        /* \"#utility.yul\":2111:2115   */\n      dup3\n        /* \"#utility.yul\":2104:2209   */\n      sstore\n        /* \"#utility.yul\":2022:2215   */\n      pop\n        /* \"#utility.yul\":1946:2215   */\n      pop\n      pop\n      pop\n      jump\t// out\n        /* \"#utility.yul\":2221:2294   */\n    tag_47:\n        /* \"#utility.yul\":2266:2269   */\n      0x00\n        /* \"#utility.yul\":2221:2294   */\n      swap1\n      jump\t// out\n        /* \"#utility.yul\":2300:2489   */\n    tag_48:\n        /* \"#utility.yul\":2377:2409   */\n      tag_86\n      tag_47\n      jump\t// in\n    tag_86:\n        /* \"#utility.yul\":2418:2483   */\n      tag_87\n        /* \"#utility.yul\":2476:2482   */\n      dup2\n        /* \"#utility.yul\":2468:2474   */\n      dup5\n        /* \"#utility.yul\":2462:2466   */\n      dup5\n        /* \"#utility.yul\":2418:2483   */\n      tag_46\n      jump\t// in\n    tag_87:\n        /* \"#utility.yul\":2353:2489   */\n      pop\n        /* \"#utility.yul\":2300:2489   */\n      pop\n      pop\n      jump\t// out\n        /* \"#utility.yul\":2495:2681   */\n    tag_49:\n        /* \"#utility.yul\":2555:2675   */\n    tag_89:\n        /* \"#utility.yul\":2572:2575   */\n      dup2\n        /* \"#utility.yul\":2565:2570   */\n      dup2\n        /* \"#utility.yul\":2562:2576   */\n      lt\n        /* \"#utility.yul\":2555:2675   */\n      iszero\n      tag_91\n      jumpi\n        /* \"#utility.yul\":2626:2665   */\n      tag_92\n        /* \"#utility.yul\":2663:2664   */\n      0x00\n        /* \"#utility.yul\":2656:2661   */\n      dup3\n        /* \"#utility.yul\":2626:2665   */\n      tag_48\n      jump\t// in\n    tag_92:\n        /* \"#utility.yul\":2599:2600   */\n      0x01\n        /* \"#utility.yul\":2592:2597   */\n      dup2\n        /* \"#utility.yul\":2588:2601   */\n      add\n        /* \"#utility.yul\":2579:2601   */\n      swap1\n      pop\n        /* \"#utility.yul\":2555:2675   */\n      jump(tag_89)\n    tag_91:\n        /* \"#utility.yul\":2495:2681   */\n      pop\n      pop\n      jump\t// out\n        /* \"#utility.yul\":2687:3230   */\n    tag_50:\n        /* \"#utility.yul\":2788:2790   */\n      0x1f\n        /* \"#utility.yul\":2783:2786   */\n      dup3\n        /* \"#utility.yul\":2780:2791   */\n      gt\n        /* \"#utility.yul\":2777:3223   */\n      iszero\n      tag_94\n      jumpi\n        /* \"#utility.yul\":2822:2860   */\n      tag_95\n        /* \"#utility.yul\":2854:2859   */\n      dup2\n        /* \"#utility.yul\":2822:2860   */\n      tag_38\n      jump\t// in\n    tag_95:\n        /* \"#utility.yul\":2906:2935   */\n      tag_96\n        /* \"#utility.yul\":2924:2934   */\n      dup5\n        /* \"#utility.yul\":2906:2935   */\n      tag_39\n      jump\t// in\n    tag_96:\n        /* \"#utility.yul\":2896:2904   */\n      dup2\n        /* \"#utility.yul\":2892:2936   */\n      add\n        /* \"#utility.yul\":3089:3091   */\n      0x20\n        /* \"#utility.yul\":3077:3087   */\n      dup6\n        /* \"#utility.yul\":3074:3092   */\n      lt\n        /* \"#utility.yul\":3071:3120   */\n      iszero\n      tag_97\n      jumpi\n        /* \"#utility.yul\":3110:3118   */\n      dup2\n        /* \"#utility.yul\":3095:3118   */\n      swap1\n      pop\n        /* \"#utility.yul\":3071:3120   */\n    tag_97:\n        /* \"#utility.yul\":3133:3213   */\n      tag_98\n        /* \"#utility.yul\":3189:3211   */\n      tag_99\n        /* \"#utility.yul\":3207:3210   */\n      dup6\n        /* \"#utility.yul\":3189:3211   */\n      tag_39\n      jump\t// in\n    tag_99:\n        /* \"#utility.yul\":3179:3187   */\n      dup4\n        /* \"#utility.yul\":3175:3212   */\n      add\n        /* \"#utility.yul\":3162:3173   */\n      dup3\n        /* \"#utility.yul\":3133:3213   */\n      tag_49\n      jump\t// in\n    tag_98:\n        /* \"#utility.yul\":2792:3223   */\n      pop\n      pop\n        /* \"#utility.yul\":2777:3223   */\n    tag_94:\n        /* \"#utility.yul\":2687:3230   */\n      pop\n      pop\n      pop\n      jump\t// out\n        /* \"#utility.yul\":3236:3353   */\n    tag_51:\n        /* \"#utility.yul\":3290:3298   */\n      0x00\n        /* \"#utility.yul\":3340:3345   */\n      dup3\n        /* \"#utility.yul\":3334:3338   */\n      dup3\n        /* \"#utility.yul\":3330:3346   */\n      shr\n        /* \"#utility.yul\":3309:3346   */\n      swap1\n      pop\n        /* \"#utility.yul\":3236:3353   */\n      swap3\n      swap2\n      pop\n      pop\n      jump\t// out\n        /* \"#utility.yul\":3359:3528   */\n    tag_52:\n        /* \"#utility.yul\":3403:3409   */\n      0x00\n        /* \"#utility.yul\":3436:3487   */\n      tag_102\n        /* \"#utility.yul\":3484:3485   */\n      0x00\n        /* \"#utility.yul\":3480:3486   */\n      not\n        /* \"#utility.yul\":3472:3477   */\n      dup5\n        /* \"#utility.yul\":3469:3470   */\n      0x08\n        /* \"#utility.yul\":3465:3478   */\n      mul\n        /* \"#utility.yul\":3436:3487   */\n      tag_51\n      jump\t// in\n    tag_102:\n        /* \"#utility.yul\":3432:3488   */\n      not\n        /* \"#utility.yul\":3517:3521   */\n      dup1\n        /* \"#utility.yul\":3511:3515   */\n      dup4\n        /* \"#utility.yul\":3507:3522   */\n      and\n        /* \"#utility.yul\":3497:3522   */\n      swap2\n      pop\n        /* \"#utility.yul\":3410:3528   */\n      pop\n        /* \"#utility.yul\":3359:3528   */\n      swap3\n      swap2\n      pop\n      pop\n      jump\t// out\n        /* \"#utility.yul\":3533:3828   */\n    tag_53:\n        /* \"#utility.yul\":3609:3613   */\n      0x00\n        /* \"#utility.yul\":3755:3784   */\n      tag_104\n        /* \"#utility.yul\":3780:3783   */\n      dup4\n        /* \"#utility.yul\":3774:3778   */\n      dup4\n        /* \"#utility.yul\":3755:3784   */\n      tag_52\n      jump\t// in\n    tag_104:\n        /* \"#utility.yul\":3747:3784   */\n      swap2\n      pop\n        /* \"#utility.yul\":3817:3820   */\n      dup3\n        /* \"#utility.yul\":3814:3815   */\n      0x02\n        /* \"#utility.yul\":3810:3821   */\n      mul\n        /* \"#utility.yul\":3804:3808   */\n      dup3\n        /* \"#utility.yul\":3801:3822   */\n      or\n        /* \"#utility.yul\":3793:3822   */\n      swap1\n      pop\n        /* \"#utility.yul\":3533:3828   */\n      swap3\n      swap2\n      pop\n      pop\n      jump\t// out\n        /* \"#utility.yul\":3833:5228   */\n    tag_9:\n        /* \"#utility.yul\":3950:3987   */\n      tag_106\n        /* \"#utility.yul\":3983:3986   */\n      dup3\n        /* \"#utility.yul\":3950:3987   */\n      tag_35\n      jump\t// in\n    tag_106:\n        /* \"#utility.yul\":4052:4070   */\n      0xffffffffffffffff\n        /* \"#utility.yul\":4044:4050   */\n      dup2\n        /* \"#utility.yul\":4041:4071   */\n      gt\n        /* \"#utility.yul\":4038:4094   */\n      iszero\n      tag_107\n      jumpi\n        /* \"#utility.yul\":4074:4092   */\n      tag_108\n      tag_36\n      jump\t// in\n    tag_108:\n        /* \"#utility.yul\":4038:4094   */\n    tag_107:\n        /* \"#utility.yul\":4118:4156   */\n      tag_109\n        /* \"#utility.yul\":4150:4154   */\n      dup3\n        /* \"#utility.yul\":4144:4155   */\n      sload\n        /* \"#utility.yul\":4118:4156   */\n      tag_30\n      jump\t// in\n    tag_109:\n        /* \"#utility.yul\":4203:4270   */\n      tag_110\n        /* \"#utility.yul\":4263:4269   */\n      dup3\n        /* \"#utility.yul\":4255:4261   */\n      dup3\n        /* \"#utility.yul\":4249:4253   */\n      dup6\n        /* \"#utility.yul\":4203:4270   */\n      tag_50\n      jump\t// in\n    tag_110:\n        /* \"#utility.yul\":4297:4298   */\n      0x00\n        /* \"#utility.yul\":4321:4325   */\n      0x20\n        /* \"#utility.yul\":4308:4325   */\n      swap1\n      pop\n        /* \"#utility.yul\":4353:4355   */\n      0x1f\n        /* \"#utility.yul\":4345:4351   */\n      dup4\n        /* \"#utility.yul\":4342:4356   */\n      gt\n        /* \"#utility.yul\":4370:4371   */\n      0x01\n        /* \"#utility.yul\":4365:4983   */\n      dup2\n      eq\n      tag_112\n      jumpi\n        /* \"#utility.yul\":5027:5028   */\n      0x00\n        /* \"#utility.yul\":5044:5050   */\n      dup5\n        /* \"#utility.yul\":5041:5118   */\n      iszero\n      tag_113\n      jumpi\n        /* \"#utility.yul\":5093:5102   */\n      dup3\n        /* \"#utility.yul\":5088:5091   */\n      dup8\n        /* \"#utility.yul\":5084:5103   */\n      add\n        /* \"#utility.yul\":5078:5104   */\n      mload\n        /* \"#utility.yul\":5069:5104   */\n      swap1\n      pop\n        /* \"#utility.yul\":5041:5118   */\n    tag_113:\n        /* \"#utility.yul\":5144:5211   */\n      tag_114\n        /* \"#utility.yul\":5204:5210   */\n      dup6\n        /* \"#utility.yul\":5197:5202   */\n      dup3\n        /* \"#utility.yul\":5144:5211   */\n      tag_53\n      jump\t// in\n    tag_114:\n        /* \"#utility.yul\":5138:5142   */\n      dup7\n        /* \"#utility.yul\":5131:5212   */\n      sstore\n        /* \"#utility.yul\":5000:5222   */\n      pop\n        /* \"#utility.yul\":4335:5222   */\n      jump(tag_111)\n        /* \"#utility.yul\":4365:4983   */\n    tag_112:\n        /* \"#utility.yul\":4417:4421   */\n      0x1f\n        /* \"#utility.yul\":4413:4422   */\n      not\n        /* \"#utility.yul\":4405:4411   */\n      dup5\n        /* \"#utility.yul\":4401:4423   */\n      and\n        /* \"#utility.yul\":4451:4488   */\n      tag_115\n        /* \"#utility.yul\":4483:4487   */\n      dup7\n        /* \"#utility.yul\":4451:4488   */\n      tag_38\n      jump\t// in\n    tag_115:\n        /* \"#utility.yul\":4510:4511   */\n      0x00\n        /* \"#utility.yul\":4524:4732   */\n    tag_116:\n        /* \"#utility.yul\":4538:4545   */\n      dup3\n        /* \"#utility.yul\":4535:4536   */\n      dup2\n        /* \"#utility.yul\":4532:4546   */\n      lt\n        /* \"#utility.yul\":4524:4732   */\n      iszero\n      tag_118\n      jumpi\n        /* \"#utility.yul\":4617:4626   */\n      dup5\n        /* \"#utility.yul\":4612:4615   */\n      dup10\n        /* \"#utility.yul\":4608:4627   */\n      add\n        /* \"#utility.yul\":4602:4628   */\n      mload\n        /* \"#utility.yul\":4594:4600   */\n      dup3\n        /* \"#utility.yul\":4587:4629   */\n      sstore\n        /* \"#utility.yul\":4668:4669   */\n      0x01\n        /* \"#utility.yul\":4660:4666   */\n      dup3\n        /* \"#utility.yul\":4656:4670   */\n      add\n        /* \"#utility.yul\":4646:4670   */\n      swap2\n      pop\n        /* \"#utility.yul\":4715:4717   */\n      0x20\n        /* \"#utility.yul\":4704:4713   */\n      dup6\n        /* \"#utility.yul\":4700:4718   */\n      add\n        /* \"#utility.yul\":4687:4718   */\n      swap5\n      pop\n        /* \"#utility.yul\":4561:4565   */\n      0x20\n        /* \"#utility.yul\":4558:4559   */\n      dup2\n        /* \"#utility.yul\":4554:4566   */\n      add\n        /* \"#utility.yul\":4549:4566   */\n      swap1\n      pop\n        /* \"#utility.yul\":4524:4732   */\n      jump(tag_116)\n    tag_118:\n        /* \"#utility.yul\":4760:4766   */\n      dup7\n        /* \"#utility.yul\":4751:4758   */\n      dup4\n        /* \"#utility.yul\":4748:4767   */\n      lt\n        /* \"#utility.yul\":4745:4924   */\n      iszero\n      tag_119\n      jumpi\n        /* \"#utility.yul\":4818:4827   */\n      dup5\n        /* \"#utility.yul\":4813:4816   */\n      dup10\n        /* \"#utility.yul\":4809:4828   */\n      add\n        /* \"#utility.yul\":4803:4829   */\n      mload\n        /* \"#utility.yul\":4861:4909   */\n      tag_120\n        /* \"#utility.yul\":4903:4907   */\n      0x1f\n        /* \"#utility.yul\":4895:4901   */\n      dup10\n        /* \"#utility.yul\":4891:4908   */\n      and\n        /* \"#utility.yul\":4880:4889   */\n      dup3\n        /* \"#utility.yul\":4861:4909   */\n      tag_52\n      jump\t// in\n    tag_120:\n        /* \"#utility.yul\":4853:4859   */\n      dup4\n        /* \"#utility.yul\":4846:4910   */\n      sstore\n        /* \"#utility.yul\":4768:4924   */\n      pop\n        /* \"#utility.yul\":4745:4924   */\n    tag_119:\n        /* \"#utility.yul\":4970:4971   */\n      0x01\n        /* \"#utility.yul\":4966:4967   */\n      0x02\n        /* \"#utility.yul\":4958:4964   */\n      dup9\n        /* \"#utility.yul\":4954:4968   */\n      mul\n        /* \"#utility.yul\":4950:4972   */\n      add\n        /* \"#utility.yul\":4944:4948   */\n      dup9\n        /* \"#utility.yul\":4937:4973   */\n      sstore\n        /* \"#utility.yul\":4372:4983   */\n      pop\n      pop\n      pop\n        /* \"#utility.yul\":4335:5222   */\n    tag_111:\n      pop\n        /* \"#utility.yul\":3925:5228   */\n      pop\n      pop\n      pop\n        /* \"#utility.yul\":3833:5228   */\n      pop\n      pop\n      jump\t// out\n        /* \"#utility.yul\":5234:5352   */\n    tag_54:\n        /* \"#utility.yul\":5321:5345   */\n      tag_122\n        /* \"#utility.yul\":5339:5344   */\n      dup2\n        /* \"#utility.yul\":5321:5345   */\n      tag_42\n      jump\t// in\n    tag_122:\n        /* \"#utility.yul\":5316:5319   */\n      dup3\n        /* \"#utility.yul\":5309:5346   */\n      mstore\n        /* \"#utility.yul\":5234:5352   */\n      pop\n      pop\n      jump\t// out\n        /* \"#utility.yul\":5358:5580   */\n    tag_18:\n        /* \"#utility.yul\":5451:5455   */\n      0x00\n        /* \"#utility.yul\":5489:5491   */\n      0x20\n        /* \"#utility.yul\":5478:5487   */\n      dup3\n        /* \"#utility.yul\":5474:5492   */\n      add\n        /* \"#utility.yul\":5466:5492   */\n      swap1\n      pop\n        /* \"#utility.yul\":5502:5573   */\n      tag_124\n        /* \"#utility.yul\":5570:5571   */\n      0x00\n        /* \"#utility.yul\":5559:5568   */\n      dup4\n        /* \"#utility.yul\":5555:5572   */\n      add\n        /* \"#utility.yul\":5546:5552   */\n      dup5\n        /* \"#utility.yul\":5502:5573   */\n      tag_54\n      jump\t// in\n    tag_124:\n        /* \"#utility.yul\":5358:5580   */\n      swap3\n      swap2\n      pop\n      pop\n      jump\t// out\n        /* \"#utility.yul\":5586:5755   */\n    tag_55:\n        /* \"#utility.yul\":5670:5681   */\n      0x00\n        /* \"#utility.yul\":5704:5710   */\n      dup3\n        /* \"#utility.yul\":5699:5702   */\n      dup3\n        /* \"#utility.yul\":5692:5711   */\n      mstore\n        /* \"#utility.yul\":5744:5748   */\n      0x20\n        /* \"#utility.yul\":5739:5742   */\n      dup3\n        /* \"#utility.yul\":5735:5749   */\n      add\n        /* \"#utility.yul\":5720:5749   */\n      swap1\n      pop\n        /* \"#utility.yul\":5586:5755   */\n      swap3\n      swap2\n      pop\n      pop\n      jump\t// out\n        /* \"#utility.yul\":5761:6007   */\n    tag_56:\n        /* \"#utility.yul\":5842:5843   */\n      0x00\n        /* \"#utility.yul\":5852:5965   */\n    tag_127:\n        /* \"#utility.yul\":5866:5872   */\n      dup4\n        /* \"#utility.yul\":5863:5864   */\n      dup2\n        /* \"#utility.yul\":5860:5873   */\n      lt\n        /* \"#utility.yul\":5852:5965   */\n      iszero\n      tag_129\n      jumpi\n        /* \"#utility.yul\":5951:5952   */\n      dup1\n        /* \"#utility.yul\":5946:5949   */\n      dup3\n        /* \"#utility.yul\":5942:5953   */\n      add\n        /* \"#utility.yul\":5936:5954   */\n      mload\n        /* \"#utility.yul\":5932:5933   */\n      dup2\n        /* \"#utility.yul\":5927:5930   */\n      dup5\n        /* \"#utility.yul\":5923:5934   */\n      add\n        /* \"#utility.yul\":5916:5955   */\n      mstore\n        /* \"#utility.yul\":5888:5890   */\n      0x20\n        /* \"#utility.yul\":5885:5886   */\n      dup2\n        /* \"#utility.yul\":5881:5891   */\n      add\n        /* \"#utility.yul\":5876:5891   */\n      swap1\n      pop\n        /* \"#utility.yul\":5852:5965   */\n      jump(tag_127)\n    tag_129:\n        /* \"#utility.yul\":5999:6000   */\n      0x00\n        /* \"#utility.yul\":5990:5996   */\n      dup5\n        /* \"#utility.yul\":5985:5988   */\n      dup5\n        /* \"#utility.yul\":5981:5997   */\n      add\n        /* \"#utility.yul\":5974:6001   */\n      mstore\n        /* \"#utility.yul\":5823:6007   */\n      pop\n        /* \"#utility.yul\":5761:6007   */\n      pop\n      pop\n      pop\n      jump\t// out\n        /* \"#utility.yul\":6013:6115   */\n    tag_57:\n        /* \"#utility.yul\":6054:6060   */\n      0x00\n        /* \"#utility.yul\":6105:6107   */\n      0x1f\n        /* \"#utility.yul\":6101:6108   */\n      not\n        /* \"#utility.yul\":6096:6098   */\n      0x1f\n        /* \"#utility.yul\":6089:6094   */\n      dup4\n        /* \"#utility.yul\":6085:6099   */\n      add\n        /* \"#utility.yul\":6081:6109   */\n      and\n        /* \"#utility.yul\":6071:6109   */\n      swap1\n      pop\n        /* \"#utility.yul\":6013:6115   */\n      swap2\n      swap1\n      pop\n      jump\t// out\n        /* \"#utility.yul\":6121:6498   */\n    tag_58:\n        /* \"#utility.yul\":6209:6212   */\n      0x00\n        /* \"#utility.yul\":6237:6276   */\n      tag_132\n        /* \"#utility.yul\":6270:6275   */\n      dup3\n        /* \"#utility.yul\":6237:6276   */\n      tag_35\n      jump\t// in\n    tag_132:\n        /* \"#utility.yul\":6292:6363   */\n      tag_133\n        /* \"#utility.yul\":6356:6362   */\n      dup2\n        /* \"#utility.yul\":6351:6354   */\n      dup6\n        /* \"#utility.yul\":6292:6363   */\n      tag_55\n      jump\t// in\n    tag_133:\n        /* \"#utility.yul\":6285:6363   */\n      swap4\n      pop\n        /* \"#utility.yul\":6372:6437   */\n      tag_134\n        /* \"#utility.yul\":6430:6436   */\n      dup2\n        /* \"#utility.yul\":6425:6428   */\n      dup6\n        /* \"#utility.yul\":6418:6422   */\n      0x20\n        /* \"#utility.yul\":6411:6416   */\n      dup7\n        /* \"#utility.yul\":6407:6423   */\n      add\n        /* \"#utility.yul\":6372:6437   */\n      tag_56\n      jump\t// in\n    tag_134:\n        /* \"#utility.yul\":6462:6491   */\n      tag_135\n        /* \"#utility.yul\":6484:6490   */\n      dup2\n        /* \"#utility.yul\":6462:6491   */\n      tag_57\n      jump\t// in\n    tag_135:\n        /* \"#utility.yul\":6457:6460   */\n      dup5\n        /* \"#utility.yul\":6453:6492   */\n      add\n        /* \"#utility.yul\":6446:6492   */\n      swap2\n      pop\n        /* \"#utility.yul\":6213:6498   */\n      pop\n        /* \"#utility.yul\":6121:6498   */\n      swap3\n      swap2\n      pop\n      pop\n      jump\t// out\n        /* \"#utility.yul\":6504:6817   */\n    tag_26:\n        /* \"#utility.yul\":6617:6621   */\n      0x00\n        /* \"#utility.yul\":6655:6657   */\n      0x20\n        /* \"#utility.yul\":6644:6653   */\n      dup3\n        /* \"#utility.yul\":6640:6658   */\n      add\n        /* \"#utility.yul\":6632:6658   */\n      swap1\n      pop\n        /* \"#utility.yul\":6704:6713   */\n      dup2\n        /* \"#utility.yul\":6698:6702   */\n      dup2\n        /* \"#utility.yul\":6694:6714   */\n      sub\n        /* \"#utility.yul\":6690:6691   */\n      0x00\n        /* \"#utility.yul\":6679:6688   */\n      dup4\n        /* \"#utility.yul\":6675:6692   */\n      add\n        /* \"#utility.yul\":6668:6715   */\n      mstore\n        /* \"#utility.yul\":6732:6810   */\n      tag_137\n        /* \"#utility.yul\":6805:6809   */\n      dup2\n        /* \"#utility.yul\":6796:6802   */\n      dup5\n        /* \"#utility.yul\":6732:6810   */\n      tag_58\n      jump\t// in\n    tag_137:\n        /* \"#utility.yul\":6724:6810   */\n      swap1\n      pop\n        /* \"#utility.yul\":6504:6817   */\n      swap3\n      swap2\n      pop\n      pop\n      jump\t// out\n\n    auxdata: 0xa26469706673582212203ffcdf5226edb7e1cd815a2a8dfc99c3f32827dba258fed32a56c9935560ea0164736f6c63430008120033\n}\n",
				"bytecode": {
					"linkReferences": {},
					"object": "608060405234801561001057600080fd5b50610604806100206000396000f3fe6080604052600436106100385760003560e01c806312065fe0146100d6578063d0e30db014610101578063fc9c8d391461011857610083565b36610083576040518060400160405280600781526020017f726563656976650000000000000000000000000000000000000000000000000081525060009081610081919061042b565b005b34801561008f57600080fd5b506040518060400160405280600881526020017f66616c6c6261636b000000000000000000000000000000000000000000000000815250600090816100d4919061042b565b005b3480156100e257600080fd5b506100eb610143565b6040516100f8919061050c565b60405180910390f35b34801561010d57600080fd5b5061011661014b565b005b34801561012457600080fd5b5061012d61014d565b60405161013a91906105ac565b60405180910390f35b600047905090565b565b6000805461015a90610244565b80601f016020809104026020016040519081016040528092919081815260200182805461018690610244565b80156101d35780601f106101a8576101008083540402835291602001916101d3565b820191906000526020600020905b8154815290600101906020018083116101b657829003601f168201915b505050505081565b600081519050919050565b7f4e487b7100000000000000000000000000000000000000000000000000000000600052604160045260246000fd5b7f4e487b7100000000000000000000000000000000000000000000000000000000600052602260045260246000fd5b6000600282049050600182168061025c57607f821691505b60208210810361026f5761026e610215565b5b50919050565b60008190508160005260206000209050919050565b60006020601f8301049050919050565b600082821b905092915050565b6000600883026102d77fffffffffffffffffffffffffffffffffffffffffffffffffffffffffffffffff8261029a565b6102e1868361029a565b95508019841693508086168417925050509392505050565b6000819050919050565b6000819050919050565b600061032861032361031e846102f9565b610303565b6102f9565b9050919050565b6000819050919050565b6103428361030d565b61035661034e8261032f565b8484546102a7565b825550505050565b600090565b61036b61035e565b610376818484610339565b505050565b5b8181101561039a5761038f600082610363565b60018101905061037c565b5050565b601f8211156103df576103b081610275565b6103b98461028a565b810160208510156103c8578190505b6103dc6103d48561028a565b83018261037b565b50505b505050565b600082821c905092915050565b6000610402600019846008026103e4565b1980831691505092915050565b600061041b83836103f1565b9150826002028217905092915050565b610434826101db565b67ffffffffffffffff81111561044d5761044c6101e6565b5b6104578254610244565b61046282828561039e565b600060209050601f8311600181146104955760008415610483578287015190505b61048d858261040f565b8655506104f5565b601f1984166104a386610275565b60005b828110156104cb578489015182556001820191506020850194506020810190506104a6565b868310156104e857848901516104e4601f8916826103f1565b8355505b6001600288020188555050505b505050505050565b610506816102f9565b82525050565b600060208201905061052160008301846104fd565b92915050565b600082825260208201905092915050565b60005b8381101561055657808201518184015260208101905061053b565b60008484015250505050565b6000601f19601f8301169050919050565b600061057e826101db565b6105888185610527565b9350610598818560208601610538565b6105a181610562565b840191505092915050565b600060208201905081810360008301526105c68184610573565b90509291505056fea26469706673582212203ffcdf5226edb7e1cd815a2a8dfc99c3f32827dba258fed32a56c9935560ea0164736f6c63430008120033",
					"opcodes": "PUSH1 0x80 PUSH1 0x40 MSTORE CALLVALUE DUP1 ISZERO PUSH2 0x10 JUMPI PUSH1 0x0 DUP1 REVERT JUMPDEST POP PUSH2 0x604 DUP1 PUSH2 0x20 PUSH1 0x0 CODECOPY PUSH1 0x0 RETURN INVALID PUSH1 0x80 PUSH1 0x40 MSTORE PUSH1 0x4 CALLDATASIZE LT PUSH2 0x38 JUMPI PUSH1 0x0 CALLDATALOAD PUSH1 0xE0 SHR DUP1 PUSH4 0x12065FE0 EQ PUSH2 0xD6 JUMPI DUP1 PUSH4 0xD0E30DB0 EQ PUSH2 0x101 JUMPI DUP1 PUSH4 0xFC9C8D39 EQ PUSH2 0x118 JUMPI PUSH2 0x83 JUMP JUMPDEST CALLDATASIZE PUSH2 0x83 JUMPI PUSH1 0x40 MLOAD DUP1 PUSH1 0x40 ADD PUSH1 0x40 MSTORE DUP1 PUSH1 0x7 DUP2 MSTORE PUSH1 0x20 ADD PUSH32 0x7265636569766500000000000000000000000000000000000000000000000000 DUP2 MSTORE POP PUSH1 0x0 SWAP1 DUP2 PUSH2 0x81 SWAP2 SWAP1 PUSH2 0x42B JUMP JUMPDEST STOP JUMPDEST CALLVALUE DUP1 ISZERO PUSH2 0x8F JUMPI PUSH1 0x0 DUP1 REVERT JUMPDEST POP PUSH1 0x40 MLOAD DUP1 PUSH1 0x40 ADD PUSH1 0x40 MSTORE DUP1 PUSH1 0x8 DUP2 MSTORE PUSH1 0x20 ADD PUSH32 0x66616C6C6261636B000000000000000000000000000000000000000000000000 DUP2 MSTORE POP PUSH1 0x0 SWAP1 DUP2 PUSH2 0xD4 SWAP2 SWAP1 PUSH2 0x42B JUMP JUMPDEST STOP JUMPDEST CALLVALUE DUP1 ISZERO PUSH2 0xE2 JUMPI PUSH1 0x0 DUP1 REVERT JUMPDEST POP PUSH2 0xEB PUSH2 0x143 JUMP JUMPDEST PUSH1 0x40 MLOAD PUSH2 0xF8 SWAP2 SWAP1 PUSH2 0x50C JUMP JUMPDEST PUSH1 0x40 MLOAD DUP1 SWAP2 SUB SWAP1 RETURN JUMPDEST CALLVALUE DUP1 ISZERO PUSH2 0x10D JUMPI PUSH1 0x0 DUP1 REVERT JUMPDEST POP PUSH2 0x116 PUSH2 0x14B JUMP JUMPDEST STOP JUMPDEST CALLVALUE DUP1 ISZERO PUSH2 0x124 JUMPI PUSH1 0x0 DUP1 REVERT JUMPDEST POP PUSH2 0x12D PUSH2 0x14D JUMP JUMPDEST PUSH1 0x40 MLOAD PUSH2 0x13A SWAP2 SWAP1 PUSH2 0x5AC JUMP JUMPDEST PUSH1 0x40 MLOAD DUP1 SWAP2 SUB SWAP1 RETURN JUMPDEST PUSH1 0x0 SELFBALANCE SWAP1 POP SWAP1 JUMP JUMPDEST JUMP JUMPDEST PUSH1 0x0 DUP1 SLOAD PUSH2 0x15A SWAP1 PUSH2 0x244 JUMP JUMPDEST DUP1 PUSH1 0x1F ADD PUSH1 0x20 DUP1 SWAP2 DIV MUL PUSH1 0x20 ADD PUSH1 0x40 MLOAD SWAP1 DUP2 ADD PUSH1 0x40 MSTORE DUP1 SWAP3 SWAP2 SWAP1 DUP2 DUP2 MSTORE PUSH1 0x20 ADD DUP3 DUP1 SLOAD PUSH2 0x186 SWAP1 PUSH2 0x244 JUMP JUMPDEST DUP1 ISZERO PUSH2 0x1D3 JUMPI DUP1 PUSH1 0x1F LT PUSH2 0x1A8 JUMPI PUSH2 0x100 DUP1 DUP4 SLOAD DIV MUL DUP4 MSTORE SWAP2 PUSH1 0x20 ADD SWAP2 PUSH2 0x1D3 JUMP JUMPDEST DUP3 ADD SWAP2 SWAP1 PUSH1 0x0 MSTORE PUSH1 0x20 PUSH1 0x0 KECCAK256 SWAP1 JUMPDEST DUP2 SLOAD DUP2 MSTORE SWAP1 PUSH1 0x1 ADD SWAP1 PUSH1 0x20 ADD DUP1 DUP4 GT PUSH2 0x1B6 JUMPI DUP3 SWAP1 SUB PUSH1 0x1F AND DUP3 ADD SWAP2 JUMPDEST POP POP POP POP POP DUP2 JUMP JUMPDEST PUSH1 0x0 DUP2 MLOAD SWAP1 POP SWAP2 SWAP1 POP JUMP JUMPDEST PUSH32 0x4E487B7100000000000000000000000000000000000000000000000000000000 PUSH1 0x0 MSTORE PUSH1 0x41 PUSH1 0x4 MSTORE PUSH1 0x24 PUSH1 0x0 REVERT JUMPDEST PUSH32 0x4E487B7100000000000000000000000000000000000000000000000000000000 PUSH1 0x0 MSTORE PUSH1 0x22 PUSH1 0x4 MSTORE PUSH1 0x24 PUSH1 0x0 REVERT JUMPDEST PUSH1 0x0 PUSH1 0x2 DUP3 DIV SWAP1 POP PUSH1 0x1 DUP3 AND DUP1 PUSH2 0x25C JUMPI PUSH1 0x7F DUP3 AND SWAP2 POP JUMPDEST PUSH1 0x20 DUP3 LT DUP2 SUB PUSH2 0x26F JUMPI PUSH2 0x26E PUSH2 0x215 JUMP JUMPDEST JUMPDEST POP SWAP2 SWAP1 POP JUMP JUMPDEST PUSH1 0x0 DUP2 SWAP1 POP DUP2 PUSH1 0x0 MSTORE PUSH1 0x20 PUSH1 0x0 KECCAK256 SWAP1 POP SWAP2 SWAP1 POP JUMP JUMPDEST PUSH1 0x0 PUSH1 0x20 PUSH1 0x1F DUP4 ADD DIV SWAP1 POP SWAP2 SWAP1 POP JUMP JUMPDEST PUSH1 0x0 DUP3 DUP3 SHL SWAP1 POP SWAP3 SWAP2 POP POP JUMP JUMPDEST PUSH1 0x0 PUSH1 0x8 DUP4 MUL PUSH2 0x2D7 PUSH32 0xFFFFFFFFFFFFFFFFFFFFFFFFFFFFFFFFFFFFFFFFFFFFFFFFFFFFFFFFFFFFFFFF DUP3 PUSH2 0x29A JUMP JUMPDEST PUSH2 0x2E1 DUP7 DUP4 PUSH2 0x29A JUMP JUMPDEST SWAP6 POP DUP1 NOT DUP5 AND SWAP4 POP DUP1 DUP7 AND DUP5 OR SWAP3 POP POP POP SWAP4 SWAP3 POP POP POP JUMP JUMPDEST PUSH1 0x0 DUP2 SWAP1 POP SWAP2 SWAP1 POP JUMP JUMPDEST PUSH1 0x0 DUP2 SWAP1 POP SWAP2 SWAP1 POP JUMP JUMPDEST PUSH1 0x0 PUSH2 0x328 PUSH2 0x323 PUSH2 0x31E DUP5 PUSH2 0x2F9 JUMP JUMPDEST PUSH2 0x303 JUMP JUMPDEST PUSH2 0x2F9 JUMP JUMPDEST SWAP1 POP SWAP2 SWAP1 POP JUMP JUMPDEST PUSH1 0x0 DUP2 SWAP1 POP SWAP2 SWAP1 POP JUMP JUMPDEST PUSH2 0x342 DUP4 PUSH2 0x30D JUMP JUMPDEST PUSH2 0x356 PUSH2 0x34E DUP3 PUSH2 0x32F JUMP JUMPDEST DUP5 DUP5 SLOAD PUSH2 0x2A7 JUMP JUMPDEST DUP3 SSTORE POP POP POP POP JUMP JUMPDEST PUSH1 0x0 SWAP1 JUMP JUMPDEST PUSH2 0x36B PUSH2 0x35E JUMP JUMPDEST PUSH2 0x376 DUP2 DUP5 DUP5 PUSH2 0x339 JUMP JUMPDEST POP POP POP JUMP JUMPDEST JUMPDEST DUP2 DUP2 LT ISZERO PUSH2 0x39A JUMPI PUSH2 0x38F PUSH1 0x0 DUP3 PUSH2 0x363 JUMP JUMPDEST PUSH1 0x1 DUP2 ADD SWAP1 POP PUSH2 0x37C JUMP JUMPDEST POP POP JUMP JUMPDEST PUSH1 0x1F DUP3 GT ISZERO PUSH2 0x3DF JUMPI PUSH2 0x3B0 DUP2 PUSH2 0x275 JUMP JUMPDEST PUSH2 0x3B9 DUP5 PUSH2 0x28A JUMP JUMPDEST DUP2 ADD PUSH1 0x20 DUP6 LT ISZERO PUSH2 0x3C8 JUMPI DUP2 SWAP1 POP JUMPDEST PUSH2 0x3DC PUSH2 0x3D4 DUP6 PUSH2 0x28A JUMP JUMPDEST DUP4 ADD DUP3 PUSH2 0x37B JUMP JUMPDEST POP POP JUMPDEST POP POP POP JUMP JUMPDEST PUSH1 0x0 DUP3 DUP3 SHR SWAP1 POP SWAP3 SWAP2 POP POP JUMP JUMPDEST PUSH1 0x0 PUSH2 0x402 PUSH1 0x0 NOT DUP5 PUSH1 0x8 MUL PUSH2 0x3E4 JUMP JUMPDEST NOT DUP1 DUP4 AND SWAP2 POP POP SWAP3 SWAP2 POP POP JUMP JUMPDEST PUSH1 0x0 PUSH2 0x41B DUP4 DUP4 PUSH2 0x3F1 JUMP JUMPDEST SWAP2 POP DUP3 PUSH1 0x2 MUL DUP3 OR SWAP1 POP SWAP3 SWAP2 POP POP JUMP JUMPDEST PUSH2 0x434 DUP3 PUSH2 0x1DB JUMP JUMPDEST PUSH8 0xFFFFFFFFFFFFFFFF DUP2 GT ISZERO PUSH2 0x44D JUMPI PUSH2 0x44C PUSH2 0x1E6 JUMP JUMPDEST JUMPDEST PUSH2 0x457 DUP3 SLOAD PUSH2 0x244 JUMP JUMPDEST PUSH2 0x462 DUP3 DUP3 DUP6 PUSH2 0x39E JUMP JUMPDEST PUSH1 0x0 PUSH1 0x20 SWAP1 POP PUSH1 0x1F DUP4 GT PUSH1 0x1 DUP2 EQ PUSH2 0x495 JUMPI PUSH1 0x0 DUP5 ISZERO PUSH2 0x483 JUMPI DUP3 DUP8 ADD MLOAD SWAP1 POP JUMPDEST PUSH2 0x48D DUP6 DUP3 PUSH2 0x40F JUMP JUMPDEST DUP7 SSTORE POP PUSH2 0x4F5 JUMP JUMPDEST PUSH1 0x1F NOT DUP5 AND PUSH2 0x4A3 DUP7 PUSH2 0x275 JUMP JUMPDEST PUSH1 0x0 JUMPDEST DUP3 DUP2 LT ISZERO PUSH2 0x4CB JUMPI DUP5 DUP10 ADD MLOAD DUP3 SSTORE PUSH1 0x1 DUP3 ADD SWAP2 POP PUSH1 0x20 DUP6 ADD SWAP5 POP PUSH1 0x20 DUP2 ADD SWAP1 POP PUSH2 0x4A6 JUMP JUMPDEST DUP7 DUP4 LT ISZERO PUSH2 0x4E8 JUMPI DUP5 DUP10 ADD MLOAD PUSH2 0x4E4 PUSH1 0x1F DUP10 AND DUP3 PUSH2 0x3F1 JUMP JUMPDEST DUP4 SSTORE POP JUMPDEST PUSH1 0x1 PUSH1 0x2 DUP9 MUL ADD DUP9 SSTORE POP POP POP JUMPDEST POP POP POP POP POP POP JUMP JUMPDEST PUSH2 0x506 DUP2 PUSH2 0x2F9 JUMP JUMPDEST DUP3 MSTORE POP POP JUMP JUMPDEST PUSH1 0x0 PUSH1 0x20 DUP3 ADD SWAP1 POP PUSH2 0x521 PUSH1 0x0 DUP4 ADD DUP5 PUSH2 0x4FD JUMP JUMPDEST SWAP3 SWAP2 POP POP JUMP JUMPDEST PUSH1 0x0 DUP3 DUP3 MSTORE PUSH1 0x20 DUP3 ADD SWAP1 POP SWAP3 SWAP2 POP POP JUMP JUMPDEST PUSH1 0x0 JUMPDEST DUP4 DUP2 LT ISZERO PUSH2 0x556 JUMPI DUP1 DUP3 ADD MLOAD DUP2 DUP5 ADD MSTORE PUSH1 0x20 DUP2 ADD SWAP1 POP PUSH2 0x53B JUMP JUMPDEST PUSH1 0x0 DUP5 DUP5 ADD MSTORE POP POP POP POP JUMP JUMPDEST PUSH1 0x0 PUSH1 0x1F NOT PUSH1 0x1F DUP4 ADD AND SWAP1 POP SWAP2 SWAP1 POP JUMP JUMPDEST PUSH1 0x0 PUSH2 0x57E DUP3 PUSH2 0x1DB JUMP JUMPDEST PUSH2 0x588 DUP2 DUP6 PUSH2 0x527 JUMP JUMPDEST SWAP4 POP PUSH2 0x598 DUP2 DUP6 PUSH1 0x20 DUP7 ADD PUSH2 0x538 JUMP JUMPDEST PUSH2 0x5A1 DUP2 PUSH2 0x562 JUMP JUMPDEST DUP5 ADD SWAP2 POP POP SWAP3 SWAP2 POP POP JUMP JUMPDEST PUSH1 0x0 PUSH1 0x20 DUP3 ADD SWAP1 POP DUP2 DUP2 SUB PUSH1 0x0 DUP4 ADD MSTORE PUSH2 0x5C6 DUP2 DUP5 PUSH2 0x573 JUMP JUMPDEST SWAP1 POP SWAP3 SWAP2 POP POP JUMP INVALID LOG2 PUSH5 0x6970667358 0x22 SLT KECCAK256 EXTCODEHASH 0xFC 0xDF MSTORE 0x26 0xED 0xB7 0xE1 0xCD DUP2 GAS 0x2A DUP14 0xFC SWAP10 0xC3 RETURN 0x28 0x27 0xDB LOG2 PC INVALID 0xD3 0x2A JUMP 0xC9 SWAP4 SSTORE PUSH1 0xEA ADD PUSH5 0x736F6C6343 STOP ADDMOD SLT STOP CALLER "
				},
				"gasEstimates": {
					"creation": {
						"codeDepositCost": "308000",
						"executionCost": "349",
						"totalCost": "308349"
					},
					"external": {
						"": "infinite",
						"caller()": "infinite",
						"deposit()": "144",
						"getBalance()": "317"
					}
				},
				"methodIdentifiers": {
					"caller()": "fc9c8d39",
					"deposit()": "d0e30db0",
					"getBalance()": "12065fe0"
				}
			},
			"storageLayout": {
				"storage": [
					{
						"astId": 3,
						"contract": "SendingEther.sol:ReceiveEther",
						"label": "caller",
						"offset": 0,
						"slot": "0",
						"type": "t_string_storage"
					}
				],
				"types": {
					"t_string_storage": {
						"encoding": "bytes",
						"label": "string",
						"numberOfBytes": "32"
					}
				}
			},
			"userdoc": {
				"kind": "user",
				"methods": {},
				"version": 1
			}
		}
	}
}