{
	"ArrayType.sol": {
		"ArrayType": {
			"abi": [
				{
					"inputs": [
						{
							"internalType": "uint8",
							"name": "size",
							"type": "uint8"
						}
					],
					"name": "testMempryDynamicArray",
					"outputs": [
						{
							"internalType": "uint8[]",
							"name": "",
							"type": "uint8[]"
						}
					],
					"stateMutability": "pure",
					"type": "function"
				},
				{
					"inputs": [],
					"name": "testReadDynamicArray",
					"outputs": [
						{
							"internalType": "uint8[]",
							"name": "",
							"type": "uint8[]"
						}
					],
					"stateMutability": "view",
					"type": "function"
				},
				{
					"inputs": [],
					"name": "testStaticArray",
					"outputs": [
						{
							"internalType": "uint8[3]",
							"name": "",
							"type": "uint8[3]"
						}
					],
					"stateMutability": "nonpayable",
					"type": "function"
				},
				{
					"inputs": [],
					"name": "testWriteDynamicArray",
					"outputs": [],
					"stateMutability": "nonpayable",
					"type": "function"
				}
			],
			"devdoc": {
				"kind": "dev",
				"methods": {},
				"version": 1
			},
			"evm": {
				"assembly": "    /* \"ArrayType.sol\":70:643  contract ArrayType{... */\n  mstore(0x40, 0x80)\n  callvalue\n  dup1\n  iszero\n  tag_1\n  jumpi\n  0x00\n  dup1\n  revert\ntag_1:\n  pop\n  dataSize(sub_0)\n  dup1\n  dataOffset(sub_0)\n  0x00\n  codecopy\n  0x00\n  return\nstop\n\nsub_0: assembly {\n        /* \"ArrayType.sol\":70:643  contract ArrayType{... */\n      mstore(0x40, 0x80)\n      callvalue\n      dup1\n      iszero\n      tag_1\n      jumpi\n      0x00\n      dup1\n      revert\n    tag_1:\n      pop\n      jumpi(tag_2, lt(calldatasize, 0x04))\n      shr(0xe0, calldataload(0x00))\n      dup1\n      0x7c3ea1c6\n      eq\n      tag_3\n      jumpi\n      dup1\n      0x9e5a952e\n      eq\n      tag_4\n      jumpi\n      dup1\n      0xadcf56fc\n      eq\n      tag_5\n      jumpi\n      dup1\n      0xe7c1a47c\n      eq\n      tag_6\n      jumpi\n    tag_2:\n      0x00\n      dup1\n      revert\n        /* \"ArrayType.sol\":387:456  function testWriteDynamicArray()public{... */\n    tag_3:\n      tag_7\n      tag_8\n      jump\t// in\n    tag_7:\n      stop\n        /* \"ArrayType.sol\":462:641  function testMempryDynamicArray(uint8 size)public pure returns(uint8[] memory){... */\n    tag_4:\n      tag_9\n      0x04\n      dup1\n      calldatasize\n      sub\n      dup2\n      add\n      swap1\n      tag_10\n      swap2\n      swap1\n      tag_11\n      jump\t// in\n    tag_10:\n      tag_12\n      jump\t// in\n    tag_9:\n      mload(0x40)\n      tag_13\n      swap2\n      swap1\n      tag_14\n      jump\t// in\n    tag_13:\n      mload(0x40)\n      dup1\n      swap2\n      sub\n      swap1\n      return\n        /* \"ArrayType.sol\":286:381  function testReadDynamicArray()public view returns(uint8[] memory){... */\n    tag_5:\n      tag_15\n      tag_16\n      jump\t// in\n    tag_15:\n      mload(0x40)\n      tag_17\n      swap2\n      swap1\n      tag_14\n      jump\t// in\n    tag_17:\n      mload(0x40)\n      dup1\n      swap2\n      sub\n      swap1\n      return\n        /* \"ArrayType.sol\":132:280  function testStaticArray()public returns(uint8[3] memory){... */\n    tag_6:\n      tag_18\n      tag_19\n      jump\t// in\n    tag_18:\n      mload(0x40)\n      tag_20\n      swap2\n      swap1\n      tag_21\n      jump\t// in\n    tag_20:\n      mload(0x40)\n      dup1\n      swap2\n      sub\n      swap1\n      return\n        /* \"ArrayType.sol\":387:456  function testWriteDynamicArray()public{... */\n    tag_8:\n        /* \"ArrayType.sol\":435:440  dData */\n      0x01\n        /* \"ArrayType.sol\":446:448  12 */\n      0x0c\n        /* \"ArrayType.sol\":435:449  dData.push(12) */\n      swap1\n      dup1\n      0x01\n      dup2\n      sload\n      add\n      dup1\n      dup3\n      sstore\n      dup1\n      swap2\n      pop\n      pop\n      0x01\n      swap1\n      sub\n      swap1\n      0x00\n      mstore\n      keccak256(0x00, 0x20)\n      swap1\n      0x20\n      swap2\n      dup3\n      dup3\n      div\n      add\n      swap2\n      swap1\n      mod\n      swap1\n      swap2\n      swap1\n      swap2\n      swap1\n      swap2\n      0x0100\n      exp\n      dup2\n      sload\n      dup2\n      0xff\n      mul\n      not\n      and\n      swap1\n      dup4\n      0xff\n      and\n      mul\n      or\n      swap1\n      sstore\n      pop\n        /* \"ArrayType.sol\":387:456  function testWriteDynamicArray()public{... */\n      jump\t// out\n        /* \"ArrayType.sol\":462:641  function testMempryDynamicArray(uint8 size)public pure returns(uint8[] memory){... */\n    tag_12:\n        /* \"ArrayType.sol\":525:539  uint8[] memory */\n      0x60\n        /* \"ArrayType.sol\":550:570  uint8[] memory mData */\n      0x00\n        /* \"ArrayType.sol\":585:589  size */\n      dup3\n        /* \"ArrayType.sol\":573:590  new uint8[](size) */\n      0xff\n      and\n      0xffffffffffffffff\n      dup2\n      gt\n      iszero\n      tag_25\n      jumpi\n      tag_26\n      tag_27\n      jump\t// in\n    tag_26:\n    tag_25:\n      mload(0x40)\n      swap1\n      dup1\n      dup3\n      mstore\n      dup1\n      0x20\n      mul\n      0x20\n      add\n      dup3\n      add\n      0x40\n      mstore\n      dup1\n      iszero\n      tag_28\n      jumpi\n      dup2\n      0x20\n      add\n      0x20\n      dup3\n      mul\n      dup1\n      calldatasize\n      dup4\n      calldatacopy\n      dup1\n      dup3\n      add\n      swap2\n      pop\n      pop\n      swap1\n      pop\n    tag_28:\n      pop\n        /* \"ArrayType.sol\":550:590  uint8[] memory mData = new uint8[](size) */\n      swap1\n      pop\n        /* \"ArrayType.sol\":611:612  9 */\n      0x09\n        /* \"ArrayType.sol\":600:605  mData */\n      dup2\n        /* \"ArrayType.sol\":606:607  0 */\n      0x00\n        /* \"ArrayType.sol\":600:608  mData[0] */\n      dup2\n      mload\n      dup2\n      lt\n      tag_29\n      jumpi\n      tag_30\n      tag_31\n      jump\t// in\n    tag_30:\n    tag_29:\n      0x20\n      mul\n      0x20\n      add\n      add\n        /* \"ArrayType.sol\":600:612  mData[0] = 9 */\n      swap1\n      0xff\n      and\n      swap1\n      dup2\n      0xff\n      and\n      dup2\n      mstore\n      pop\n      pop\n        /* \"ArrayType.sol\":629:634  mData */\n      dup1\n        /* \"ArrayType.sol\":622:634  return mData */\n      swap2\n      pop\n      pop\n        /* \"ArrayType.sol\":462:641  function testMempryDynamicArray(uint8 size)public pure returns(uint8[] memory){... */\n      swap2\n      swap1\n      pop\n      jump\t// out\n        /* \"ArrayType.sol\":286:381  function testReadDynamicArray()public view returns(uint8[] memory){... */\n    tag_16:\n        /* \"ArrayType.sol\":337:351  uint8[] memory */\n      0x60\n        /* \"ArrayType.sol\":369:374  dData */\n      0x01\n        /* \"ArrayType.sol\":362:374  return dData */\n      dup1\n      sload\n      dup1\n      0x20\n      mul\n      0x20\n      add\n      mload(0x40)\n      swap1\n      dup2\n      add\n      0x40\n      mstore\n      dup1\n      swap3\n      swap2\n      swap1\n      dup2\n      dup2\n      mstore\n      0x20\n      add\n      dup3\n      dup1\n      sload\n      dup1\n      iszero\n      tag_33\n      jumpi\n      0x20\n      mul\n      dup3\n      add\n      swap2\n      swap1\n      0x00\n      mstore\n      keccak256(0x00, 0x20)\n      swap1\n      0x00\n      swap1\n    tag_34:\n      dup3\n      dup3\n      swap1\n      sload\n      swap1\n      0x0100\n      exp\n      swap1\n      div\n      0xff\n      and\n      0xff\n      and\n      dup2\n      mstore\n      0x20\n      add\n      swap1\n      0x01\n      add\n      swap1\n      0x20\n      dup3\n      0x00\n      add\n      div\n      swap3\n      dup4\n      add\n      swap3\n      0x01\n      sub\n      dup3\n      mul\n      swap2\n      pop\n      dup1\n      dup5\n      gt\n      tag_34\n      jumpi\n      swap1\n      pop\n    tag_33:\n      pop\n      pop\n      pop\n      pop\n      pop\n      swap1\n      pop\n        /* \"ArrayType.sol\":286:381  function testReadDynamicArray()public view returns(uint8[] memory){... */\n      swap1\n      jump\t// out\n        /* \"ArrayType.sol\":132:280  function testStaticArray()public returns(uint8[3] memory){... */\n    tag_19:\n        /* \"ArrayType.sol\":173:188  uint8[3] memory */\n      tag_35\n      tag_36\n      jump\t// in\n    tag_35:\n        /* \"ArrayType.sol\":209:211  25 */\n      0x19\n        /* \"ArrayType.sol\":199:203  data */\n      0x00\n        /* \"ArrayType.sol\":204:205  0 */\n      dup1\n        /* \"ArrayType.sol\":199:206  data[0] */\n      0x03\n      dup2\n      lt\n      tag_38\n      jumpi\n      tag_39\n      tag_31\n      jump\t// in\n    tag_39:\n    tag_38:\n      0x20\n      swap2\n      dup3\n      dup3\n      div\n      add\n      swap2\n      swap1\n      mod\n        /* \"ArrayType.sol\":199:211  data[0] = 25 */\n      0x0100\n      exp\n      dup2\n      sload\n      dup2\n      0xff\n      mul\n      not\n      and\n      swap1\n      dup4\n      0xff\n      and\n      mul\n      or\n      swap1\n      sstore\n      pop\n        /* \"ArrayType.sol\":222:229  uint8 i */\n      0x00\n        /* \"ArrayType.sol\":232:236  data */\n      dup1\n        /* \"ArrayType.sol\":237:238  1 */\n      0x01\n        /* \"ArrayType.sol\":232:239  data[1] */\n      0x03\n      dup2\n      lt\n      tag_41\n      jumpi\n      tag_42\n      tag_31\n      jump\t// in\n    tag_42:\n    tag_41:\n      0x20\n      swap2\n      dup3\n      dup3\n      div\n      add\n      swap2\n      swap1\n      mod\n      swap1\n      sload\n      swap1\n      0x0100\n      exp\n      swap1\n      div\n      0xff\n      and\n        /* \"ArrayType.sol\":222:239  uint8 i = data[1] */\n      swap1\n      pop\n        /* \"ArrayType.sol\":249:252  i++ */\n      dup1\n      dup1\n      tag_44\n      swap1\n      tag_45\n      jump\t// in\n    tag_44:\n      swap2\n      pop\n      pop\n        /* \"ArrayType.sol\":269:273  data */\n      0x00\n        /* \"ArrayType.sol\":262:273  return data */\n      0x03\n      dup1\n      0x20\n      mul\n      mload(0x40)\n      swap1\n      dup2\n      add\n      0x40\n      mstore\n      dup1\n      swap3\n      swap2\n      swap1\n      dup3\n      0x03\n      dup1\n      iszero\n      tag_46\n      jumpi\n      0x20\n      mul\n      dup3\n      add\n      swap2\n      0x00\n      swap1\n    tag_47:\n      dup3\n      dup3\n      swap1\n      sload\n      swap1\n      0x0100\n      exp\n      swap1\n      div\n      0xff\n      and\n      0xff\n      and\n      dup2\n      mstore\n      0x20\n      add\n      swap1\n      0x01\n      add\n      swap1\n      0x20\n      dup3\n      0x00\n      add\n      div\n      swap3\n      dup4\n      add\n      swap3\n      0x01\n      sub\n      dup3\n      mul\n      swap2\n      pop\n      dup1\n      dup5\n      gt\n      tag_47\n      jumpi\n      swap1\n      pop\n    tag_46:\n      pop\n      pop\n      pop\n      pop\n      pop\n      swap2\n      pop\n      pop\n        /* \"ArrayType.sol\":132:280  function testStaticArray()public returns(uint8[3] memory){... */\n      swap1\n      jump\t// out\n    tag_36:\n      mload(0x40)\n      dup1\n      0x60\n      add\n      0x40\n      mstore\n      dup1\n      0x03\n      swap1\n      0x20\n      dup3\n      mul\n      dup1\n      calldatasize\n      dup4\n      calldatacopy\n      dup1\n      dup3\n      add\n      swap2\n      pop\n      pop\n      swap1\n      pop\n      pop\n      swap1\n      jump\t// out\n        /* \"#utility.yul\":88:205   */\n    tag_49:\n        /* \"#utility.yul\":197:198   */\n      0x00\n        /* \"#utility.yul\":194:195   */\n      dup1\n        /* \"#utility.yul\":187:199   */\n      revert\n        /* \"#utility.yul\":334:420   */\n    tag_51:\n        /* \"#utility.yul\":369:376   */\n      0x00\n        /* \"#utility.yul\":409:413   */\n      0xff\n        /* \"#utility.yul\":402:407   */\n      dup3\n        /* \"#utility.yul\":398:414   */\n      and\n        /* \"#utility.yul\":387:414   */\n      swap1\n      pop\n        /* \"#utility.yul\":334:420   */\n      swap2\n      swap1\n      pop\n      jump\t// out\n        /* \"#utility.yul\":426:544   */\n    tag_52:\n        /* \"#utility.yul\":497:519   */\n      tag_73\n        /* \"#utility.yul\":513:518   */\n      dup2\n        /* \"#utility.yul\":497:519   */\n      tag_51\n      jump\t// in\n    tag_73:\n        /* \"#utility.yul\":490:495   */\n      dup2\n        /* \"#utility.yul\":487:520   */\n      eq\n        /* \"#utility.yul\":477:538   */\n      tag_74\n      jumpi\n        /* \"#utility.yul\":534:535   */\n      0x00\n        /* \"#utility.yul\":531:532   */\n      dup1\n        /* \"#utility.yul\":524:536   */\n      revert\n        /* \"#utility.yul\":477:538   */\n    tag_74:\n        /* \"#utility.yul\":426:544   */\n      pop\n      jump\t// out\n        /* \"#utility.yul\":550:685   */\n    tag_53:\n        /* \"#utility.yul\":594:599   */\n      0x00\n        /* \"#utility.yul\":632:638   */\n      dup2\n        /* \"#utility.yul\":619:639   */\n      calldataload\n        /* \"#utility.yul\":610:639   */\n      swap1\n      pop\n        /* \"#utility.yul\":648:679   */\n      tag_76\n        /* \"#utility.yul\":673:678   */\n      dup2\n        /* \"#utility.yul\":648:679   */\n      tag_52\n      jump\t// in\n    tag_76:\n        /* \"#utility.yul\":550:685   */\n      swap3\n      swap2\n      pop\n      pop\n      jump\t// out\n        /* \"#utility.yul\":691:1016   */\n    tag_11:\n        /* \"#utility.yul\":748:754   */\n      0x00\n        /* \"#utility.yul\":797:799   */\n      0x20\n        /* \"#utility.yul\":785:794   */\n      dup3\n        /* \"#utility.yul\":776:783   */\n      dup5\n        /* \"#utility.yul\":772:795   */\n      sub\n        /* \"#utility.yul\":768:800   */\n      slt\n        /* \"#utility.yul\":765:884   */\n      iszero\n      tag_78\n      jumpi\n        /* \"#utility.yul\":803:882   */\n      tag_79\n      tag_49\n      jump\t// in\n    tag_79:\n        /* \"#utility.yul\":765:884   */\n    tag_78:\n        /* \"#utility.yul\":923:924   */\n      0x00\n        /* \"#utility.yul\":948:999   */\n      tag_80\n        /* \"#utility.yul\":991:998   */\n      dup5\n        /* \"#utility.yul\":982:988   */\n      dup3\n        /* \"#utility.yul\":971:980   */\n      dup6\n        /* \"#utility.yul\":967:989   */\n      add\n        /* \"#utility.yul\":948:999   */\n      tag_53\n      jump\t// in\n    tag_80:\n        /* \"#utility.yul\":938:999   */\n      swap2\n      pop\n        /* \"#utility.yul\":894:1009   */\n      pop\n        /* \"#utility.yul\":691:1016   */\n      swap3\n      swap2\n      pop\n      pop\n      jump\t// out\n        /* \"#utility.yul\":1022:1134   */\n    tag_54:\n        /* \"#utility.yul\":1087:1093   */\n      0x00\n        /* \"#utility.yul\":1121:1126   */\n      dup2\n        /* \"#utility.yul\":1115:1127   */\n      mload\n        /* \"#utility.yul\":1105:1127   */\n      swap1\n      pop\n        /* \"#utility.yul\":1022:1134   */\n      swap2\n      swap1\n      pop\n      jump\t// out\n        /* \"#utility.yul\":1140:1322   */\n    tag_55:\n        /* \"#utility.yul\":1237:1248   */\n      0x00\n        /* \"#utility.yul\":1271:1277   */\n      dup3\n        /* \"#utility.yul\":1266:1269   */\n      dup3\n        /* \"#utility.yul\":1259:1278   */\n      mstore\n        /* \"#utility.yul\":1311:1315   */\n      0x20\n        /* \"#utility.yul\":1306:1309   */\n      dup3\n        /* \"#utility.yul\":1302:1316   */\n      add\n        /* \"#utility.yul\":1287:1316   */\n      swap1\n      pop\n        /* \"#utility.yul\":1140:1322   */\n      swap3\n      swap2\n      pop\n      pop\n      jump\t// out\n        /* \"#utility.yul\":1328:1458   */\n    tag_56:\n        /* \"#utility.yul\":1393:1397   */\n      0x00\n        /* \"#utility.yul\":1416:1419   */\n      dup2\n        /* \"#utility.yul\":1408:1419   */\n      swap1\n      pop\n        /* \"#utility.yul\":1446:1450   */\n      0x20\n        /* \"#utility.yul\":1441:1444   */\n      dup3\n        /* \"#utility.yul\":1437:1451   */\n      add\n        /* \"#utility.yul\":1429:1451   */\n      swap1\n      pop\n        /* \"#utility.yul\":1328:1458   */\n      swap2\n      swap1\n      pop\n      jump\t// out\n        /* \"#utility.yul\":1464:1566   */\n    tag_57:\n        /* \"#utility.yul\":1537:1559   */\n      tag_85\n        /* \"#utility.yul\":1553:1558   */\n      dup2\n        /* \"#utility.yul\":1537:1559   */\n      tag_51\n      jump\t// in\n    tag_85:\n        /* \"#utility.yul\":1532:1535   */\n      dup3\n        /* \"#utility.yul\":1525:1560   */\n      mstore\n        /* \"#utility.yul\":1464:1566   */\n      pop\n      pop\n      jump\t// out\n        /* \"#utility.yul\":1572:1743   */\n    tag_58:\n        /* \"#utility.yul\":1637:1647   */\n      0x00\n        /* \"#utility.yul\":1658:1700   */\n      tag_87\n        /* \"#utility.yul\":1696:1699   */\n      dup4\n        /* \"#utility.yul\":1688:1694   */\n      dup4\n        /* \"#utility.yul\":1658:1700   */\n      tag_57\n      jump\t// in\n    tag_87:\n        /* \"#utility.yul\":1732:1736   */\n      0x20\n        /* \"#utility.yul\":1727:1730   */\n      dup4\n        /* \"#utility.yul\":1723:1737   */\n      add\n        /* \"#utility.yul\":1709:1737   */\n      swap1\n      pop\n        /* \"#utility.yul\":1572:1743   */\n      swap3\n      swap2\n      pop\n      pop\n      jump\t// out\n        /* \"#utility.yul\":1749:1860   */\n    tag_59:\n        /* \"#utility.yul\":1817:1821   */\n      0x00\n        /* \"#utility.yul\":1849:1853   */\n      0x20\n        /* \"#utility.yul\":1844:1847   */\n      dup3\n        /* \"#utility.yul\":1840:1854   */\n      add\n        /* \"#utility.yul\":1832:1854   */\n      swap1\n      pop\n        /* \"#utility.yul\":1749:1860   */\n      swap2\n      swap1\n      pop\n      jump\t// out\n        /* \"#utility.yul\":1892:2608   */\n    tag_60:\n        /* \"#utility.yul\":2007:2010   */\n      0x00\n        /* \"#utility.yul\":2036:2088   */\n      tag_90\n        /* \"#utility.yul\":2082:2087   */\n      dup3\n        /* \"#utility.yul\":2036:2088   */\n      tag_54\n      jump\t// in\n    tag_90:\n        /* \"#utility.yul\":2104:2188   */\n      tag_91\n        /* \"#utility.yul\":2181:2187   */\n      dup2\n        /* \"#utility.yul\":2176:2179   */\n      dup6\n        /* \"#utility.yul\":2104:2188   */\n      tag_55\n      jump\t// in\n    tag_91:\n        /* \"#utility.yul\":2097:2188   */\n      swap4\n      pop\n        /* \"#utility.yul\":2212:2266   */\n      tag_92\n        /* \"#utility.yul\":2260:2265   */\n      dup4\n        /* \"#utility.yul\":2212:2266   */\n      tag_56\n      jump\t// in\n    tag_92:\n        /* \"#utility.yul\":2289:2296   */\n      dup1\n        /* \"#utility.yul\":2320:2321   */\n      0x00\n        /* \"#utility.yul\":2305:2583   */\n    tag_93:\n        /* \"#utility.yul\":2330:2336   */\n      dup4\n        /* \"#utility.yul\":2327:2328   */\n      dup2\n        /* \"#utility.yul\":2324:2337   */\n      lt\n        /* \"#utility.yul\":2305:2583   */\n      iszero\n      tag_95\n      jumpi\n        /* \"#utility.yul\":2406:2412   */\n      dup2\n        /* \"#utility.yul\":2400:2413   */\n      mload\n        /* \"#utility.yul\":2433:2492   */\n      tag_96\n        /* \"#utility.yul\":2488:2491   */\n      dup9\n        /* \"#utility.yul\":2473:2486   */\n      dup3\n        /* \"#utility.yul\":2433:2492   */\n      tag_58\n      jump\t// in\n    tag_96:\n        /* \"#utility.yul\":2426:2492   */\n      swap8\n      pop\n        /* \"#utility.yul\":2515:2573   */\n      tag_97\n        /* \"#utility.yul\":2566:2572   */\n      dup4\n        /* \"#utility.yul\":2515:2573   */\n      tag_59\n      jump\t// in\n    tag_97:\n        /* \"#utility.yul\":2505:2573   */\n      swap3\n      pop\n        /* \"#utility.yul\":2365:2583   */\n      pop\n        /* \"#utility.yul\":2352:2353   */\n      0x01\n        /* \"#utility.yul\":2349:2350   */\n      dup2\n        /* \"#utility.yul\":2345:2354   */\n      add\n        /* \"#utility.yul\":2340:2354   */\n      swap1\n      pop\n        /* \"#utility.yul\":2305:2583   */\n      jump(tag_93)\n    tag_95:\n        /* \"#utility.yul\":2309:2323   */\n      pop\n        /* \"#utility.yul\":2599:2602   */\n      dup6\n        /* \"#utility.yul\":2592:2602   */\n      swap4\n      pop\n        /* \"#utility.yul\":2012:2608   */\n      pop\n      pop\n      pop\n        /* \"#utility.yul\":1892:2608   */\n      swap3\n      swap2\n      pop\n      pop\n      jump\t// out\n        /* \"#utility.yul\":2614:2979   */\n    tag_14:\n        /* \"#utility.yul\":2753:2757   */\n      0x00\n        /* \"#utility.yul\":2791:2793   */\n      0x20\n        /* \"#utility.yul\":2780:2789   */\n      dup3\n        /* \"#utility.yul\":2776:2794   */\n      add\n        /* \"#utility.yul\":2768:2794   */\n      swap1\n      pop\n        /* \"#utility.yul\":2840:2849   */\n      dup2\n        /* \"#utility.yul\":2834:2838   */\n      dup2\n        /* \"#utility.yul\":2830:2850   */\n      sub\n        /* \"#utility.yul\":2826:2827   */\n      0x00\n        /* \"#utility.yul\":2815:2824   */\n      dup4\n        /* \"#utility.yul\":2811:2828   */\n      add\n        /* \"#utility.yul\":2804:2851   */\n      mstore\n        /* \"#utility.yul\":2868:2972   */\n      tag_99\n        /* \"#utility.yul\":2967:2971   */\n      dup2\n        /* \"#utility.yul\":2958:2964   */\n      dup5\n        /* \"#utility.yul\":2868:2972   */\n      tag_60\n      jump\t// in\n    tag_99:\n        /* \"#utility.yul\":2860:2972   */\n      swap1\n      pop\n        /* \"#utility.yul\":2614:2979   */\n      swap3\n      swap2\n      pop\n      pop\n      jump\t// out\n        /* \"#utility.yul\":2985:3087   */\n    tag_61:\n        /* \"#utility.yul\":3048:3054   */\n      0x00\n        /* \"#utility.yul\":3076:3080   */\n      0x03\n        /* \"#utility.yul\":3066:3080   */\n      swap1\n      pop\n        /* \"#utility.yul\":2985:3087   */\n      swap2\n      swap1\n      pop\n      jump\t// out\n        /* \"#utility.yul\":3093:3234   */\n    tag_62:\n        /* \"#utility.yul\":3188:3199   */\n      0x00\n        /* \"#utility.yul\":3225:3228   */\n      dup2\n        /* \"#utility.yul\":3210:3228   */\n      swap1\n      pop\n        /* \"#utility.yul\":3093:3234   */\n      swap3\n      swap2\n      pop\n      pop\n      jump\t// out\n        /* \"#utility.yul\":3240:3336   */\n    tag_63:\n        /* \"#utility.yul\":3303:3307   */\n      0x00\n        /* \"#utility.yul\":3326:3329   */\n      dup2\n        /* \"#utility.yul\":3318:3329   */\n      swap1\n      pop\n        /* \"#utility.yul\":3240:3336   */\n      swap2\n      swap1\n      pop\n      jump\t// out\n        /* \"#utility.yul\":3342:3451   */\n    tag_64:\n        /* \"#utility.yul\":3408:3412   */\n      0x00\n        /* \"#utility.yul\":3440:3444   */\n      0x20\n        /* \"#utility.yul\":3435:3438   */\n      dup3\n        /* \"#utility.yul\":3431:3445   */\n      add\n        /* \"#utility.yul\":3423:3445   */\n      swap1\n      pop\n        /* \"#utility.yul\":3342:3451   */\n      swap2\n      swap1\n      pop\n      jump\t// out\n        /* \"#utility.yul\":3485:4163   */\n    tag_65:\n        /* \"#utility.yul\":3617:3667   */\n      tag_105\n        /* \"#utility.yul\":3661:3666   */\n      dup2\n        /* \"#utility.yul\":3617:3667   */\n      tag_61\n      jump\t// in\n    tag_105:\n        /* \"#utility.yul\":3683:3765   */\n      tag_106\n        /* \"#utility.yul\":3758:3764   */\n      dup2\n        /* \"#utility.yul\":3753:3756   */\n      dup5\n        /* \"#utility.yul\":3683:3765   */\n      tag_62\n      jump\t// in\n    tag_106:\n        /* \"#utility.yul\":3676:3765   */\n      swap3\n      pop\n        /* \"#utility.yul\":3789:3841   */\n      tag_107\n        /* \"#utility.yul\":3835:3840   */\n      dup3\n        /* \"#utility.yul\":3789:3841   */\n      tag_63\n      jump\t// in\n    tag_107:\n        /* \"#utility.yul\":3864:3871   */\n      dup1\n        /* \"#utility.yul\":3895:3896   */\n      0x00\n        /* \"#utility.yul\":3880:4156   */\n    tag_108:\n        /* \"#utility.yul\":3905:3911   */\n      dup4\n        /* \"#utility.yul\":3902:3903   */\n      dup2\n        /* \"#utility.yul\":3899:3912   */\n      lt\n        /* \"#utility.yul\":3880:4156   */\n      iszero\n      tag_110\n      jumpi\n        /* \"#utility.yul\":3981:3987   */\n      dup2\n        /* \"#utility.yul\":3975:3988   */\n      mload\n        /* \"#utility.yul\":4008:4067   */\n      tag_111\n        /* \"#utility.yul\":4063:4066   */\n      dup8\n        /* \"#utility.yul\":4048:4061   */\n      dup3\n        /* \"#utility.yul\":4008:4067   */\n      tag_58\n      jump\t// in\n    tag_111:\n        /* \"#utility.yul\":4001:4067   */\n      swap7\n      pop\n        /* \"#utility.yul\":4090:4146   */\n      tag_112\n        /* \"#utility.yul\":4139:4145   */\n      dup4\n        /* \"#utility.yul\":4090:4146   */\n      tag_64\n      jump\t// in\n    tag_112:\n        /* \"#utility.yul\":4080:4146   */\n      swap3\n      pop\n        /* \"#utility.yul\":3940:4156   */\n      pop\n        /* \"#utility.yul\":3927:3928   */\n      0x01\n        /* \"#utility.yul\":3924:3925   */\n      dup2\n        /* \"#utility.yul\":3920:3929   */\n      add\n        /* \"#utility.yul\":3915:3929   */\n      swap1\n      pop\n        /* \"#utility.yul\":3880:4156   */\n      jump(tag_108)\n    tag_110:\n        /* \"#utility.yul\":3884:3898   */\n      pop\n        /* \"#utility.yul\":3593:4163   */\n      pop\n      pop\n      pop\n        /* \"#utility.yul\":3485:4163   */\n      pop\n      pop\n      jump\t// out\n        /* \"#utility.yul\":4169:4475   */\n    tag_21:\n        /* \"#utility.yul\":4304:4308   */\n      0x00\n        /* \"#utility.yul\":4342:4344   */\n      0x60\n        /* \"#utility.yul\":4331:4340   */\n      dup3\n        /* \"#utility.yul\":4327:4345   */\n      add\n        /* \"#utility.yul\":4319:4345   */\n      swap1\n      pop\n        /* \"#utility.yul\":4355:4468   */\n      tag_114\n        /* \"#utility.yul\":4465:4466   */\n      0x00\n        /* \"#utility.yul\":4454:4463   */\n      dup4\n        /* \"#utility.yul\":4450:4467   */\n      add\n        /* \"#utility.yul\":4441:4447   */\n      dup5\n        /* \"#utility.yul\":4355:4468   */\n      tag_65\n      jump\t// in\n    tag_114:\n        /* \"#utility.yul\":4169:4475   */\n      swap3\n      swap2\n      pop\n      pop\n      jump\t// out\n        /* \"#utility.yul\":4481:4661   */\n    tag_27:\n        /* \"#utility.yul\":4529:4606   */\n      0x4e487b7100000000000000000000000000000000000000000000000000000000\n        /* \"#utility.yul\":4526:4527   */\n      0x00\n        /* \"#utility.yul\":4519:4607   */\n      mstore\n        /* \"#utility.yul\":4626:4630   */\n      0x41\n        /* \"#utility.yul\":4623:4624   */\n      0x04\n        /* \"#utility.yul\":4616:4631   */\n      mstore\n        /* \"#utility.yul\":4650:4654   */\n      0x24\n        /* \"#utility.yul\":4647:4648   */\n      0x00\n        /* \"#utility.yul\":4640:4655   */\n      revert\n        /* \"#utility.yul\":4667:4847   */\n    tag_31:\n        /* \"#utility.yul\":4715:4792   */\n      0x4e487b7100000000000000000000000000000000000000000000000000000000\n        /* \"#utility.yul\":4712:4713   */\n      0x00\n        /* \"#utility.yul\":4705:4793   */\n      mstore\n        /* \"#utility.yul\":4812:4816   */\n      0x32\n        /* \"#utility.yul\":4809:4810   */\n      0x04\n        /* \"#utility.yul\":4802:4817   */\n      mstore\n        /* \"#utility.yul\":4836:4840   */\n      0x24\n        /* \"#utility.yul\":4833:4834   */\n      0x00\n        /* \"#utility.yul\":4826:4841   */\n      revert\n        /* \"#utility.yul\":4853:5033   */\n    tag_66:\n        /* \"#utility.yul\":4901:4978   */\n      0x4e487b7100000000000000000000000000000000000000000000000000000000\n        /* \"#utility.yul\":4898:4899   */\n      0x00\n        /* \"#utility.yul\":4891:4979   */\n      mstore\n        /* \"#utility.yul\":4998:5002   */\n      0x11\n        /* \"#utility.yul\":4995:4996   */\n      0x04\n        /* \"#utility.yul\":4988:5003   */\n      mstore\n        /* \"#utility.yul\":5022:5026   */\n      0x24\n        /* \"#utility.yul\":5019:5020   */\n      0x00\n        /* \"#utility.yul\":5012:5027   */\n      revert\n        /* \"#utility.yul\":5039:5206   */\n    tag_45:\n        /* \"#utility.yul\":5076:5079   */\n      0x00\n        /* \"#utility.yul\":5099:5121   */\n      tag_119\n        /* \"#utility.yul\":5115:5120   */\n      dup3\n        /* \"#utility.yul\":5099:5121   */\n      tag_51\n      jump\t// in\n    tag_119:\n        /* \"#utility.yul\":5090:5121   */\n      swap2\n      pop\n        /* \"#utility.yul\":5143:5147   */\n      0xff\n        /* \"#utility.yul\":5136:5141   */\n      dup3\n        /* \"#utility.yul\":5133:5148   */\n      sub\n        /* \"#utility.yul\":5130:5171   */\n      tag_120\n      jumpi\n        /* \"#utility.yul\":5151:5169   */\n      tag_121\n      tag_66\n      jump\t// in\n    tag_121:\n        /* \"#utility.yul\":5130:5171   */\n    tag_120:\n        /* \"#utility.yul\":5198:5199   */\n      0x01\n        /* \"#utility.yul\":5191:5196   */\n      dup3\n        /* \"#utility.yul\":5187:5200   */\n      add\n        /* \"#utility.yul\":5180:5200   */\n      swap1\n      pop\n        /* \"#utility.yul\":5039:5206   */\n      swap2\n      swap1\n      pop\n      jump\t// out\n\n    auxdata: 0xa26469706673582212201887d5c5ed8395e71c8f260b5cd19fef1f0893e1a67e0f62959a4eed10c2e25a64736f6c63430008120033\n}\n",
				"bytecode": {
					"linkReferences": {},
					"object": "608060405234801561001057600080fd5b506105ee806100206000396000f3fe608060405234801561001057600080fd5b506004361061004c5760003560e01c80637c3ea1c6146100515780639e5a952e1461005b578063adcf56fc1461008b578063e7c1a47c146100a9575b600080fd5b6100596100c7565b005b61007560048036038101906100709190610356565b61010f565b6040516100829190610441565b60405180910390f35b610093610194565b6040516100a09190610441565b60405180910390f35b6100b1610212565b6040516100be91906104e7565b60405180910390f35b6001600c90806001815401808255809150506001900390600052602060002090602091828204019190069091909190916101000a81548160ff021916908360ff160217905550565b606060008260ff1667ffffffffffffffff8111156101305761012f610502565b5b60405190808252806020026020018201604052801561015e5781602001602082028036833780820191505090505b50905060098160008151811061017757610176610531565b5b602002602001019060ff16908160ff168152505080915050919050565b6060600180548060200260200160405190810160405280929190818152602001828054801561020857602002820191906000526020600020906000905b82829054906101000a900460ff1660ff16815260200190600101906020826000010492830192600103820291508084116101d15790505b5050505050905090565b61021a6102f6565b6019600080600381106102305761022f610531565b5b602091828204019190066101000a81548160ff021916908360ff16021790555060008060016003811061026657610265610531565b5b602091828204019190069054906101000a900460ff16905080806102899061058f565b91505060006003806020026040519081016040528092919082600380156102eb576020028201916000905b82829054906101000a900460ff1660ff16815260200190600101906020826000010492830192600103820291508084116102b45790505b505050505091505090565b6040518060600160405280600390602082028036833780820191505090505090565b600080fd5b600060ff82169050919050565b6103338161031d565b811461033e57600080fd5b50565b6000813590506103508161032a565b92915050565b60006020828403121561036c5761036b610318565b5b600061037a84828501610341565b91505092915050565b600081519050919050565b600082825260208201905092915050565b6000819050602082019050919050565b6103b88161031d565b82525050565b60006103ca83836103af565b60208301905092915050565b6000602082019050919050565b60006103ee82610383565b6103f8818561038e565b93506104038361039f565b8060005b8381101561043457815161041b88826103be565b9750610426836103d6565b925050600181019050610407565b5085935050505092915050565b6000602082019050818103600083015261045b81846103e3565b905092915050565b600060039050919050565b600081905092915050565b6000819050919050565b6000602082019050919050565b61049981610463565b6104a3818461046e565b92506104ae82610479565b8060005b838110156104df5781516104c687826103be565b96506104d183610483565b9250506001810190506104b2565b505050505050565b60006060820190506104fc6000830184610490565b92915050565b7f4e487b7100000000000000000000000000000000000000000000000000000000600052604160045260246000fd5b7f4e487b7100000000000000000000000000000000000000000000000000000000600052603260045260246000fd5b7f4e487b7100000000000000000000000000000000000000000000000000000000600052601160045260246000fd5b600061059a8261031d565b915060ff82036105ad576105ac610560565b5b60018201905091905056fea26469706673582212201887d5c5ed8395e71c8f260b5cd19fef1f0893e1a67e0f62959a4eed10c2e25a64736f6c63430008120033",
					"opcodes": "PUSH1 0x80 PUSH1 0x40 MSTORE CALLVALUE DUP1 ISZERO PUSH2 0x10 JUMPI PUSH1 0x0 DUP1 REVERT JUMPDEST POP PUSH2 0x5EE DUP1 PUSH2 0x20 PUSH1 0x0 CODECOPY PUSH1 0x0 RETURN INVALID PUSH1 0x80 PUSH1 0x40 MSTORE CALLVALUE DUP1 ISZERO PUSH2 0x10 JUMPI PUSH1 0x0 DUP1 REVERT JUMPDEST POP PUSH1 0x4 CALLDATASIZE LT PUSH2 0x4C JUMPI PUSH1 0x0 CALLDATALOAD PUSH1 0xE0 SHR DUP1 PUSH4 0x7C3EA1C6 EQ PUSH2 0x51 JUMPI DUP1 PUSH4 0x9E5A952E EQ PUSH2 0x5B JUMPI DUP1 PUSH4 0xADCF56FC EQ PUSH2 0x8B JUMPI DUP1 PUSH4 0xE7C1A47C EQ PUSH2 0xA9 JUMPI JUMPDEST PUSH1 0x0 DUP1 REVERT JUMPDEST PUSH2 0x59 PUSH2 0xC7 JUMP JUMPDEST STOP JUMPDEST PUSH2 0x75 PUSH1 0x4 DUP1 CALLDATASIZE SUB DUP2 ADD SWAP1 PUSH2 0x70 SWAP2 SWAP1 PUSH2 0x356 JUMP JUMPDEST PUSH2 0x10F JUMP JUMPDEST PUSH1 0x40 MLOAD PUSH2 0x82 SWAP2 SWAP1 PUSH2 0x441 JUMP JUMPDEST PUSH1 0x40 MLOAD DUP1 SWAP2 SUB SWAP1 RETURN JUMPDEST PUSH2 0x93 PUSH2 0x194 JUMP JUMPDEST PUSH1 0x40 MLOAD PUSH2 0xA0 SWAP2 SWAP1 PUSH2 0x441 JUMP JUMPDEST PUSH1 0x40 MLOAD DUP1 SWAP2 SUB SWAP1 RETURN JUMPDEST PUSH2 0xB1 PUSH2 0x212 JUMP JUMPDEST PUSH1 0x40 MLOAD PUSH2 0xBE SWAP2 SWAP1 PUSH2 0x4E7 JUMP JUMPDEST PUSH1 0x40 MLOAD DUP1 SWAP2 SUB SWAP1 RETURN JUMPDEST PUSH1 0x1 PUSH1 0xC SWAP1 DUP1 PUSH1 0x1 DUP2 SLOAD ADD DUP1 DUP3 SSTORE DUP1 SWAP2 POP POP PUSH1 0x1 SWAP1 SUB SWAP1 PUSH1 0x0 MSTORE PUSH1 0x20 PUSH1 0x0 KECCAK256 SWAP1 PUSH1 0x20 SWAP2 DUP3 DUP3 DIV ADD SWAP2 SWAP1 MOD SWAP1 SWAP2 SWAP1 SWAP2 SWAP1 SWAP2 PUSH2 0x100 EXP DUP2 SLOAD DUP2 PUSH1 0xFF MUL NOT AND SWAP1 DUP4 PUSH1 0xFF AND MUL OR SWAP1 SSTORE POP JUMP JUMPDEST PUSH1 0x60 PUSH1 0x0 DUP3 PUSH1 0xFF AND PUSH8 0xFFFFFFFFFFFFFFFF DUP2 GT ISZERO PUSH2 0x130 JUMPI PUSH2 0x12F PUSH2 0x502 JUMP JUMPDEST JUMPDEST PUSH1 0x40 MLOAD SWAP1 DUP1 DUP3 MSTORE DUP1 PUSH1 0x20 MUL PUSH1 0x20 ADD DUP3 ADD PUSH1 0x40 MSTORE DUP1 ISZERO PUSH2 0x15E JUMPI DUP2 PUSH1 0x20 ADD PUSH1 0x20 DUP3 MUL DUP1 CALLDATASIZE DUP4 CALLDATACOPY DUP1 DUP3 ADD SWAP2 POP POP SWAP1 POP JUMPDEST POP SWAP1 POP PUSH1 0x9 DUP2 PUSH1 0x0 DUP2 MLOAD DUP2 LT PUSH2 0x177 JUMPI PUSH2 0x176 PUSH2 0x531 JUMP JUMPDEST JUMPDEST PUSH1 0x20 MUL PUSH1 0x20 ADD ADD SWAP1 PUSH1 0xFF AND SWAP1 DUP2 PUSH1 0xFF AND DUP2 MSTORE POP POP DUP1 SWAP2 POP POP SWAP2 SWAP1 POP JUMP JUMPDEST PUSH1 0x60 PUSH1 0x1 DUP1 SLOAD DUP1 PUSH1 0x20 MUL PUSH1 0x20 ADD PUSH1 0x40 MLOAD SWAP1 DUP2 ADD PUSH1 0x40 MSTORE DUP1 SWAP3 SWAP2 SWAP1 DUP2 DUP2 MSTORE PUSH1 0x20 ADD DUP3 DUP1 SLOAD DUP1 ISZERO PUSH2 0x208 JUMPI PUSH1 0x20 MUL DUP3 ADD SWAP2 SWAP1 PUSH1 0x0 MSTORE PUSH1 0x20 PUSH1 0x0 KECCAK256 SWAP1 PUSH1 0x0 SWAP1 JUMPDEST DUP3 DUP3 SWAP1 SLOAD SWAP1 PUSH2 0x100 EXP SWAP1 DIV PUSH1 0xFF AND PUSH1 0xFF AND DUP2 MSTORE PUSH1 0x20 ADD SWAP1 PUSH1 0x1 ADD SWAP1 PUSH1 0x20 DUP3 PUSH1 0x0 ADD DIV SWAP3 DUP4 ADD SWAP3 PUSH1 0x1 SUB DUP3 MUL SWAP2 POP DUP1 DUP5 GT PUSH2 0x1D1 JUMPI SWAP1 POP JUMPDEST POP POP POP POP POP SWAP1 POP SWAP1 JUMP JUMPDEST PUSH2 0x21A PUSH2 0x2F6 JUMP JUMPDEST PUSH1 0x19 PUSH1 0x0 DUP1 PUSH1 0x3 DUP2 LT PUSH2 0x230 JUMPI PUSH2 0x22F PUSH2 0x531 JUMP JUMPDEST JUMPDEST PUSH1 0x20 SWAP2 DUP3 DUP3 DIV ADD SWAP2 SWAP1 MOD PUSH2 0x100 EXP DUP2 SLOAD DUP2 PUSH1 0xFF MUL NOT AND SWAP1 DUP4 PUSH1 0xFF AND MUL OR SWAP1 SSTORE POP PUSH1 0x0 DUP1 PUSH1 0x1 PUSH1 0x3 DUP2 LT PUSH2 0x266 JUMPI PUSH2 0x265 PUSH2 0x531 JUMP JUMPDEST JUMPDEST PUSH1 0x20 SWAP2 DUP3 DUP3 DIV ADD SWAP2 SWAP1 MOD SWAP1 SLOAD SWAP1 PUSH2 0x100 EXP SWAP1 DIV PUSH1 0xFF AND SWAP1 POP DUP1 DUP1 PUSH2 0x289 SWAP1 PUSH2 0x58F JUMP JUMPDEST SWAP2 POP POP PUSH1 0x0 PUSH1 0x3 DUP1 PUSH1 0x20 MUL PUSH1 0x40 MLOAD SWAP1 DUP2 ADD PUSH1 0x40 MSTORE DUP1 SWAP3 SWAP2 SWAP1 DUP3 PUSH1 0x3 DUP1 ISZERO PUSH2 0x2EB JUMPI PUSH1 0x20 MUL DUP3 ADD SWAP2 PUSH1 0x0 SWAP1 JUMPDEST DUP3 DUP3 SWAP1 SLOAD SWAP1 PUSH2 0x100 EXP SWAP1 DIV PUSH1 0xFF AND PUSH1 0xFF AND DUP2 MSTORE PUSH1 0x20 ADD SWAP1 PUSH1 0x1 ADD SWAP1 PUSH1 0x20 DUP3 PUSH1 0x0 ADD DIV SWAP3 DUP4 ADD SWAP3 PUSH1 0x1 SUB DUP3 MUL SWAP2 POP DUP1 DUP5 GT PUSH2 0x2B4 JUMPI SWAP1 POP JUMPDEST POP POP POP POP POP SWAP2 POP POP SWAP1 JUMP JUMPDEST PUSH1 0x40 MLOAD DUP1 PUSH1 0x60 ADD PUSH1 0x40 MSTORE DUP1 PUSH1 0x3 SWAP1 PUSH1 0x20 DUP3 MUL DUP1 CALLDATASIZE DUP4 CALLDATACOPY DUP1 DUP3 ADD SWAP2 POP POP SWAP1 POP POP SWAP1 JUMP JUMPDEST PUSH1 0x0 DUP1 REVERT JUMPDEST PUSH1 0x0 PUSH1 0xFF DUP3 AND SWAP1 POP SWAP2 SWAP1 POP JUMP JUMPDEST PUSH2 0x333 DUP2 PUSH2 0x31D JUMP JUMPDEST DUP2 EQ PUSH2 0x33E JUMPI PUSH1 0x0 DUP1 REVERT JUMPDEST POP JUMP JUMPDEST PUSH1 0x0 DUP2 CALLDATALOAD SWAP1 POP PUSH2 0x350 DUP2 PUSH2 0x32A JUMP JUMPDEST SWAP3 SWAP2 POP POP JUMP JUMPDEST PUSH1 0x0 PUSH1 0x20 DUP3 DUP5 SUB SLT ISZERO PUSH2 0x36C JUMPI PUSH2 0x36B PUSH2 0x318 JUMP JUMPDEST JUMPDEST PUSH1 0x0 PUSH2 0x37A DUP5 DUP3 DUP6 ADD PUSH2 0x341 JUMP JUMPDEST SWAP2 POP POP SWAP3 SWAP2 POP POP JUMP JUMPDEST PUSH1 0x0 DUP2 MLOAD SWAP1 POP SWAP2 SWAP1 POP JUMP JUMPDEST PUSH1 0x0 DUP3 DUP3 MSTORE PUSH1 0x20 DUP3 ADD SWAP1 POP SWAP3 SWAP2 POP POP JUMP JUMPDEST PUSH1 0x0 DUP2 SWAP1 POP PUSH1 0x20 DUP3 ADD SWAP1 POP SWAP2 SWAP1 POP JUMP JUMPDEST PUSH2 0x3B8 DUP2 PUSH2 0x31D JUMP JUMPDEST DUP3 MSTORE POP POP JUMP JUMPDEST PUSH1 0x0 PUSH2 0x3CA DUP4 DUP4 PUSH2 0x3AF JUMP JUMPDEST PUSH1 0x20 DUP4 ADD SWAP1 POP SWAP3 SWAP2 POP POP JUMP JUMPDEST PUSH1 0x0 PUSH1 0x20 DUP3 ADD SWAP1 POP SWAP2 SWAP1 POP JUMP JUMPDEST PUSH1 0x0 PUSH2 0x3EE DUP3 PUSH2 0x383 JUMP JUMPDEST PUSH2 0x3F8 DUP2 DUP6 PUSH2 0x38E JUMP JUMPDEST SWAP4 POP PUSH2 0x403 DUP4 PUSH2 0x39F JUMP JUMPDEST DUP1 PUSH1 0x0 JUMPDEST DUP4 DUP2 LT ISZERO PUSH2 0x434 JUMPI DUP2 MLOAD PUSH2 0x41B DUP9 DUP3 PUSH2 0x3BE JUMP JUMPDEST SWAP8 POP PUSH2 0x426 DUP4 PUSH2 0x3D6 JUMP JUMPDEST SWAP3 POP POP PUSH1 0x1 DUP2 ADD SWAP1 POP PUSH2 0x407 JUMP JUMPDEST POP DUP6 SWAP4 POP POP POP POP SWAP3 SWAP2 POP POP JUMP JUMPDEST PUSH1 0x0 PUSH1 0x20 DUP3 ADD SWAP1 POP DUP2 DUP2 SUB PUSH1 0x0 DUP4 ADD MSTORE PUSH2 0x45B DUP2 DUP5 PUSH2 0x3E3 JUMP JUMPDEST SWAP1 POP SWAP3 SWAP2 POP POP JUMP JUMPDEST PUSH1 0x0 PUSH1 0x3 SWAP1 POP SWAP2 SWAP1 POP JUMP JUMPDEST PUSH1 0x0 DUP2 SWAP1 POP SWAP3 SWAP2 POP POP JUMP JUMPDEST PUSH1 0x0 DUP2 SWAP1 POP SWAP2 SWAP1 POP JUMP JUMPDEST PUSH1 0x0 PUSH1 0x20 DUP3 ADD SWAP1 POP SWAP2 SWAP1 POP JUMP JUMPDEST PUSH2 0x499 DUP2 PUSH2 0x463 JUMP JUMPDEST PUSH2 0x4A3 DUP2 DUP5 PUSH2 0x46E JUMP JUMPDEST SWAP3 POP PUSH2 0x4AE DUP3 PUSH2 0x479 JUMP JUMPDEST DUP1 PUSH1 0x0 JUMPDEST DUP4 DUP2 LT ISZERO PUSH2 0x4DF JUMPI DUP2 MLOAD PUSH2 0x4C6 DUP8 DUP3 PUSH2 0x3BE JUMP JUMPDEST SWAP7 POP PUSH2 0x4D1 DUP4 PUSH2 0x483 JUMP JUMPDEST SWAP3 POP POP PUSH1 0x1 DUP2 ADD SWAP1 POP PUSH2 0x4B2 JUMP JUMPDEST POP POP POP POP POP POP JUMP JUMPDEST PUSH1 0x0 PUSH1 0x60 DUP3 ADD SWAP1 POP PUSH2 0x4FC PUSH1 0x0 DUP4 ADD DUP5 PUSH2 0x490 JUMP JUMPDEST SWAP3 SWAP2 POP POP JUMP JUMPDEST PUSH32 0x4E487B7100000000000000000000000000000000000000000000000000000000 PUSH1 0x0 MSTORE PUSH1 0x41 PUSH1 0x4 MSTORE PUSH1 0x24 PUSH1 0x0 REVERT JUMPDEST PUSH32 0x4E487B7100000000000000000000000000000000000000000000000000000000 PUSH1 0x0 MSTORE PUSH1 0x32 PUSH1 0x4 MSTORE PUSH1 0x24 PUSH1 0x0 REVERT JUMPDEST PUSH32 0x4E487B7100000000000000000000000000000000000000000000000000000000 PUSH1 0x0 MSTORE PUSH1 0x11 PUSH1 0x4 MSTORE PUSH1 0x24 PUSH1 0x0 REVERT JUMPDEST PUSH1 0x0 PUSH2 0x59A DUP3 PUSH2 0x31D JUMP JUMPDEST SWAP2 POP PUSH1 0xFF DUP3 SUB PUSH2 0x5AD JUMPI PUSH2 0x5AC PUSH2 0x560 JUMP JUMPDEST JUMPDEST PUSH1 0x1 DUP3 ADD SWAP1 POP SWAP2 SWAP1 POP JUMP INVALID LOG2 PUSH5 0x6970667358 0x22 SLT KECCAK256 XOR DUP8 0xD5 0xC5 0xED DUP4 SWAP6 0xE7 SHR DUP16 0x26 SIGNEXTEND 0x5C 0xD1 SWAP16 0xEF 0x1F ADDMOD SWAP4 0xE1 0xA6 PUSH31 0xF62959A4EED10C2E25A64736F6C6343000812003300000000000000000000 "
				},
				"gasEstimates": {
					"creation": {
						"codeDepositCost": "303600",
						"executionCost": "343",
						"totalCost": "303943"
					},
					"external": {
						"testMempryDynamicArray(uint8)": "infinite",
						"testReadDynamicArray()": "infinite",
						"testStaticArray()": "infinite",
						"testWriteDynamicArray()": "50329"
					}
				},
				"methodIdentifiers": {
					"testMempryDynamicArray(uint8)": "9e5a952e",
					"testReadDynamicArray()": "adcf56fc",
					"testStaticArray()": "e7c1a47c",
					"testWriteDynamicArray()": "7c3ea1c6"
				}
			},
			"storageLayout": {
				"storage": [
					{
						"astId": 5,
						"contract": "ArrayType.sol:ArrayType",
						"label": "data",
						"offset": 0,
						"slot": "0",
						"type": "t_array(t_uint8)3_storage"
					},
					{
						"astId": 8,
						"contract": "ArrayType.sol:ArrayType",
						"label": "dData",
						"offset": 0,
						"slot": "1",
						"type": "t_array(t_uint8)dyn_storage"
					}
				],
				"types": {
					"t_array(t_uint8)3_storage": {
						"base": "t_uint8",
						"encoding": "inplace",
						"label": "uint8[3]",
						"numberOfBytes": "32"
					},
					"t_array(t_uint8)dyn_storage": {
						"base": "t_uint8",
						"encoding": "dynamic_array",
						"label": "uint8[]",
						"numberOfBytes": "32"
					},
					"t_uint8": {
						"encoding": "inplace",
						"label": "uint8",
						"numberOfBytes": "1"
					}
				}
			},
			"userdoc": {
				"kind": "user",
				"methods": {},
				"version": 1
			}
		}
	}
}