{
	"proxy/basic-proxy.sol": {
		"Proxy": {
			"abi": [
				{
					"inputs": [
						{
							"internalType": "address",
							"name": "_logic",
							"type": "address"
						}
					],
					"stateMutability": "nonpayable",
					"type": "constructor"
				},
				{
					"stateMutability": "nonpayable",
					"type": "fallback"
				},
				{
					"inputs": [],
					"name": "count",
					"outputs": [
						{
							"internalType": "uint256",
							"name": "",
							"type": "uint256"
						}
					],
					"stateMutability": "view",
					"type": "function"
				},
				{
					"inputs": [],
					"name": "logic",
					"outputs": [
						{
							"internalType": "address",
							"name": "",
							"type": "address"
						}
					],
					"stateMutability": "view",
					"type": "function"
				},
				{
					"inputs": [],
					"name": "placeholder2",
					"outputs": [
						{
							"internalType": "address",
							"name": "",
							"type": "address"
						}
					],
					"stateMutability": "view",
					"type": "function"
				},
				{
					"inputs": [
						{
							"internalType": "address",
							"name": "newVersion",
							"type": "address"
						}
					],
					"name": "upgradeTo",
					"outputs": [],
					"stateMutability": "nonpayable",
					"type": "function"
				}
			],
			"devdoc": {
				"kind": "dev",
				"methods": {},
				"version": 1
			},
			"evm": {
				"assembly": "    /* \"proxy/basic-proxy.sol\":466:865  contract Proxy {... */\n  mstore(0x40, 0x80)\n    /* \"proxy/basic-proxy.sol\":572:630  constructor(address _logic){... */\n  callvalue\n  dup1\n  iszero\n  tag_1\n  jumpi\n  0x00\n  dup1\n  revert\ntag_1:\n  pop\n  mload(0x40)\n  sub(codesize, bytecodeSize)\n  dup1\n  bytecodeSize\n  dup4\n  codecopy\n  dup2\n  dup2\n  add\n  0x40\n  mstore\n  dup2\n  add\n  swap1\n  tag_2\n  swap2\n  swap1\n  tag_3\n  jump\t// in\ntag_2:\n    /* \"proxy/basic-proxy.sol\":617:623  _logic */\n  dup1\n    /* \"proxy/basic-proxy.sol\":609:614  logic */\n  0x00\n  dup1\n    /* \"proxy/basic-proxy.sol\":609:623  logic = _logic */\n  0x0100\n  exp\n  dup2\n  sload\n  dup2\n  0xffffffffffffffffffffffffffffffffffffffff\n  mul\n  not\n  and\n  swap1\n  dup4\n  0xffffffffffffffffffffffffffffffffffffffff\n  and\n  mul\n  or\n  swap1\n  sstore\n  pop\n    /* \"proxy/basic-proxy.sol\":572:630  constructor(address _logic){... */\n  pop\n    /* \"proxy/basic-proxy.sol\":466:865  contract Proxy {... */\n  jump(tag_6)\n    /* \"#utility.yul\":88:205   */\ntag_8:\n    /* \"#utility.yul\":197:198   */\n  0x00\n    /* \"#utility.yul\":194:195   */\n  dup1\n    /* \"#utility.yul\":187:199   */\n  revert\n    /* \"#utility.yul\":334:460   */\ntag_10:\n    /* \"#utility.yul\":371:378   */\n  0x00\n    /* \"#utility.yul\":411:453   */\n  0xffffffffffffffffffffffffffffffffffffffff\n    /* \"#utility.yul\":404:409   */\n  dup3\n    /* \"#utility.yul\":400:454   */\n  and\n    /* \"#utility.yul\":389:454   */\n  swap1\n  pop\n    /* \"#utility.yul\":334:460   */\n  swap2\n  swap1\n  pop\n  jump\t// out\n    /* \"#utility.yul\":466:562   */\ntag_11:\n    /* \"#utility.yul\":503:510   */\n  0x00\n    /* \"#utility.yul\":532:556   */\n  tag_20\n    /* \"#utility.yul\":550:555   */\n  dup3\n    /* \"#utility.yul\":532:556   */\n  tag_10\n  jump\t// in\ntag_20:\n    /* \"#utility.yul\":521:556   */\n  swap1\n  pop\n    /* \"#utility.yul\":466:562   */\n  swap2\n  swap1\n  pop\n  jump\t// out\n    /* \"#utility.yul\":568:690   */\ntag_12:\n    /* \"#utility.yul\":641:665   */\n  tag_22\n    /* \"#utility.yul\":659:664   */\n  dup2\n    /* \"#utility.yul\":641:665   */\n  tag_11\n  jump\t// in\ntag_22:\n    /* \"#utility.yul\":634:639   */\n  dup2\n    /* \"#utility.yul\":631:666   */\n  eq\n    /* \"#utility.yul\":621:684   */\n  tag_23\n  jumpi\n    /* \"#utility.yul\":680:681   */\n  0x00\n    /* \"#utility.yul\":677:678   */\n  dup1\n    /* \"#utility.yul\":670:682   */\n  revert\n    /* \"#utility.yul\":621:684   */\ntag_23:\n    /* \"#utility.yul\":568:690   */\n  pop\n  jump\t// out\n    /* \"#utility.yul\":696:839   */\ntag_13:\n    /* \"#utility.yul\":753:758   */\n  0x00\n    /* \"#utility.yul\":784:790   */\n  dup2\n    /* \"#utility.yul\":778:791   */\n  mload\n    /* \"#utility.yul\":769:791   */\n  swap1\n  pop\n    /* \"#utility.yul\":800:833   */\n  tag_25\n    /* \"#utility.yul\":827:832   */\n  dup2\n    /* \"#utility.yul\":800:833   */\n  tag_12\n  jump\t// in\ntag_25:\n    /* \"#utility.yul\":696:839   */\n  swap3\n  swap2\n  pop\n  pop\n  jump\t// out\n    /* \"#utility.yul\":845:1196   */\ntag_3:\n    /* \"#utility.yul\":915:921   */\n  0x00\n    /* \"#utility.yul\":964:966   */\n  0x20\n    /* \"#utility.yul\":952:961   */\n  dup3\n    /* \"#utility.yul\":943:950   */\n  dup5\n    /* \"#utility.yul\":939:962   */\n  sub\n    /* \"#utility.yul\":935:967   */\n  slt\n    /* \"#utility.yul\":932:1051   */\n  iszero\n  tag_27\n  jumpi\n    /* \"#utility.yul\":970:1049   */\n  tag_28\n  tag_8\n  jump\t// in\ntag_28:\n    /* \"#utility.yul\":932:1051   */\ntag_27:\n    /* \"#utility.yul\":1090:1091   */\n  0x00\n    /* \"#utility.yul\":1115:1179   */\n  tag_29\n    /* \"#utility.yul\":1171:1178   */\n  dup5\n    /* \"#utility.yul\":1162:1168   */\n  dup3\n    /* \"#utility.yul\":1151:1160   */\n  dup6\n    /* \"#utility.yul\":1147:1169   */\n  add\n    /* \"#utility.yul\":1115:1179   */\n  tag_13\n  jump\t// in\ntag_29:\n    /* \"#utility.yul\":1105:1179   */\n  swap2\n  pop\n    /* \"#utility.yul\":1061:1189   */\n  pop\n    /* \"#utility.yul\":845:1196   */\n  swap3\n  swap2\n  pop\n  pop\n  jump\t// out\n    /* \"proxy/basic-proxy.sol\":466:865  contract Proxy {... */\ntag_6:\n  dataSize(sub_0)\n  dup1\n  dataOffset(sub_0)\n  0x00\n  codecopy\n  0x00\n  return\nstop\n\nsub_0: assembly {\n        /* \"proxy/basic-proxy.sol\":466:865  contract Proxy {... */\n      mstore(0x40, 0x80)\n      callvalue\n      dup1\n      iszero\n      tag_1\n      jumpi\n      0x00\n      dup1\n      revert\n    tag_1:\n      pop\n      jumpi(tag_2, lt(calldatasize, 0x04))\n      shr(0xe0, calldataload(0x00))\n      dup1\n      0x06661abd\n      eq\n      tag_4\n      jumpi\n      dup1\n      0x3659cfe6\n      eq\n      tag_5\n      jumpi\n      dup1\n      0xca724f2d\n      eq\n      tag_6\n      jumpi\n      dup1\n      0xd7dfa0dd\n      eq\n      tag_7\n      jumpi\n      jump(tag_3)\n    tag_2:\n    tag_3:\n        /* \"proxy/basic-proxy.sol\":667:674  bool ok */\n      0x00\n        /* \"proxy/basic-proxy.sol\":676:692  bytes memory res */\n      dup1\n        /* \"proxy/basic-proxy.sol\":696:701  logic */\n      0x00\n      dup1\n      sload\n      swap1\n      0x0100\n      exp\n      swap1\n      div\n      0xffffffffffffffffffffffffffffffffffffffff\n      and\n        /* \"proxy/basic-proxy.sol\":696:714  logic.delegatecall */\n      0xffffffffffffffffffffffffffffffffffffffff\n      and\n        /* \"proxy/basic-proxy.sol\":715:723  msg.data */\n      0x00\n      calldatasize\n        /* \"proxy/basic-proxy.sol\":696:724  logic.delegatecall(msg.data) */\n      mload(0x40)\n      tag_10\n      swap3\n      swap2\n      swap1\n      tag_11\n      jump\t// in\n    tag_10:\n      0x00\n      mload(0x40)\n      dup1\n      dup4\n      sub\n      dup2\n      dup6\n      gas\n      delegatecall\n      swap2\n      pop\n      pop\n      returndatasize\n      dup1\n      0x00\n      dup2\n      eq\n      tag_14\n      jumpi\n      mload(0x40)\n      swap2\n      pop\n      and(add(returndatasize, 0x3f), not(0x1f))\n      dup3\n      add\n      0x40\n      mstore\n      returndatasize\n      dup3\n      mstore\n      returndatasize\n      0x00\n      0x20\n      dup5\n      add\n      returndatacopy\n      jump(tag_13)\n    tag_14:\n      0x60\n      swap2\n      pop\n    tag_13:\n      pop\n        /* \"proxy/basic-proxy.sol\":666:724  (bool ok, bytes memory res) = logic.delegatecall(msg.data) */\n      swap2\n      pop\n      swap2\n      pop\n        /* \"proxy/basic-proxy.sol\":742:744  ok */\n      dup2\n        /* \"proxy/basic-proxy.sol\":734:768  require(ok, \"delegatecall failed\") */\n      tag_15\n      jumpi\n      mload(0x40)\n      0x08c379a000000000000000000000000000000000000000000000000000000000\n      dup2\n      mstore\n      0x04\n      add\n      tag_16\n      swap1\n      tag_17\n      jump\t// in\n    tag_16:\n      mload(0x40)\n      dup1\n      swap2\n      sub\n      swap1\n      revert\n    tag_15:\n        /* \"proxy/basic-proxy.sol\":656:775  {... */\n      stop\n        /* \"proxy/basic-proxy.sol\":513:533  uint256 public count */\n    tag_4:\n      tag_18\n      tag_19\n      jump\t// in\n    tag_18:\n      mload(0x40)\n      tag_20\n      swap2\n      swap1\n      tag_21\n      jump\t// in\n    tag_20:\n      mload(0x40)\n      dup1\n      swap2\n      sub\n      swap1\n      return\n        /* \"proxy/basic-proxy.sol\":780:861  function upgradeTo(address newVersion)external{... */\n    tag_5:\n      tag_22\n      0x04\n      dup1\n      calldatasize\n      sub\n      dup2\n      add\n      swap1\n      tag_23\n      swap2\n      swap1\n      tag_24\n      jump\t// in\n    tag_23:\n      tag_25\n      jump\t// in\n    tag_22:\n      stop\n        /* \"proxy/basic-proxy.sol\":539:566  address public placeholder2 */\n    tag_6:\n      tag_26\n      tag_27\n      jump\t// in\n    tag_26:\n      mload(0x40)\n      tag_28\n      swap2\n      swap1\n      tag_29\n      jump\t// in\n    tag_28:\n      mload(0x40)\n      dup1\n      swap2\n      sub\n      swap1\n      return\n        /* \"proxy/basic-proxy.sol\":487:507  address public logic */\n    tag_7:\n      tag_30\n      tag_31\n      jump\t// in\n    tag_30:\n      mload(0x40)\n      tag_32\n      swap2\n      swap1\n      tag_29\n      jump\t// in\n    tag_32:\n      mload(0x40)\n      dup1\n      swap2\n      sub\n      swap1\n      return\n        /* \"proxy/basic-proxy.sol\":513:533  uint256 public count */\n    tag_19:\n      sload(0x01)\n      dup2\n      jump\t// out\n        /* \"proxy/basic-proxy.sol\":780:861  function upgradeTo(address newVersion)external{... */\n    tag_25:\n        /* \"proxy/basic-proxy.sol\":844:854  newVersion */\n      dup1\n        /* \"proxy/basic-proxy.sol\":836:841  logic */\n      0x00\n      dup1\n        /* \"proxy/basic-proxy.sol\":836:854  logic = newVersion */\n      0x0100\n      exp\n      dup2\n      sload\n      dup2\n      0xffffffffffffffffffffffffffffffffffffffff\n      mul\n      not\n      and\n      swap1\n      dup4\n      0xffffffffffffffffffffffffffffffffffffffff\n      and\n      mul\n      or\n      swap1\n      sstore\n      pop\n        /* \"proxy/basic-proxy.sol\":780:861  function upgradeTo(address newVersion)external{... */\n      pop\n      jump\t// out\n        /* \"proxy/basic-proxy.sol\":539:566  address public placeholder2 */\n    tag_27:\n      0x02\n      0x00\n      swap1\n      sload\n      swap1\n      0x0100\n      exp\n      swap1\n      div\n      0xffffffffffffffffffffffffffffffffffffffff\n      and\n      dup2\n      jump\t// out\n        /* \"proxy/basic-proxy.sol\":487:507  address public logic */\n    tag_31:\n      0x00\n      dup1\n      sload\n      swap1\n      0x0100\n      exp\n      swap1\n      div\n      0xffffffffffffffffffffffffffffffffffffffff\n      and\n      dup2\n      jump\t// out\n        /* \"#utility.yul\":7:154   */\n    tag_34:\n        /* \"#utility.yul\":108:119   */\n      0x00\n        /* \"#utility.yul\":145:148   */\n      dup2\n        /* \"#utility.yul\":130:148   */\n      swap1\n      pop\n        /* \"#utility.yul\":7:154   */\n      swap3\n      swap2\n      pop\n      pop\n      jump\t// out\n        /* \"#utility.yul\":160:306   */\n    tag_35:\n        /* \"#utility.yul\":257:263   */\n      dup3\n        /* \"#utility.yul\":252:255   */\n      dup2\n        /* \"#utility.yul\":247:250   */\n      dup4\n        /* \"#utility.yul\":234:264   */\n      calldatacopy\n        /* \"#utility.yul\":298:299   */\n      0x00\n        /* \"#utility.yul\":289:295   */\n      dup4\n        /* \"#utility.yul\":284:287   */\n      dup4\n        /* \"#utility.yul\":280:296   */\n      add\n        /* \"#utility.yul\":273:300   */\n      mstore\n        /* \"#utility.yul\":160:306   */\n      pop\n      pop\n      pop\n      jump\t// out\n        /* \"#utility.yul\":334:661   */\n    tag_36:\n        /* \"#utility.yul\":448:451   */\n      0x00\n        /* \"#utility.yul\":469:557   */\n      tag_54\n        /* \"#utility.yul\":550:556   */\n      dup4\n        /* \"#utility.yul\":545:548   */\n      dup6\n        /* \"#utility.yul\":469:557   */\n      tag_34\n      jump\t// in\n    tag_54:\n        /* \"#utility.yul\":462:557   */\n      swap4\n      pop\n        /* \"#utility.yul\":567:623   */\n      tag_55\n        /* \"#utility.yul\":616:622   */\n      dup4\n        /* \"#utility.yul\":611:614   */\n      dup6\n        /* \"#utility.yul\":604:609   */\n      dup5\n        /* \"#utility.yul\":567:623   */\n      tag_35\n      jump\t// in\n    tag_55:\n        /* \"#utility.yul\":648:654   */\n      dup3\n        /* \"#utility.yul\":643:646   */\n      dup5\n        /* \"#utility.yul\":639:655   */\n      add\n        /* \"#utility.yul\":632:655   */\n      swap1\n      pop\n        /* \"#utility.yul\":334:661   */\n      swap4\n      swap3\n      pop\n      pop\n      pop\n      jump\t// out\n        /* \"#utility.yul\":667:958   */\n    tag_11:\n        /* \"#utility.yul\":807:810   */\n      0x00\n        /* \"#utility.yul\":829:932   */\n      tag_57\n        /* \"#utility.yul\":928:931   */\n      dup3\n        /* \"#utility.yul\":919:925   */\n      dup5\n        /* \"#utility.yul\":911:917   */\n      dup7\n        /* \"#utility.yul\":829:932   */\n      tag_36\n      jump\t// in\n    tag_57:\n        /* \"#utility.yul\":822:932   */\n      swap2\n      pop\n        /* \"#utility.yul\":949:952   */\n      dup2\n        /* \"#utility.yul\":942:952   */\n      swap1\n      pop\n        /* \"#utility.yul\":667:958   */\n      swap4\n      swap3\n      pop\n      pop\n      pop\n      jump\t// out\n        /* \"#utility.yul\":964:1133   */\n    tag_37:\n        /* \"#utility.yul\":1048:1059   */\n      0x00\n        /* \"#utility.yul\":1082:1088   */\n      dup3\n        /* \"#utility.yul\":1077:1080   */\n      dup3\n        /* \"#utility.yul\":1070:1089   */\n      mstore\n        /* \"#utility.yul\":1122:1126   */\n      0x20\n        /* \"#utility.yul\":1117:1120   */\n      dup3\n        /* \"#utility.yul\":1113:1127   */\n      add\n        /* \"#utility.yul\":1098:1127   */\n      swap1\n      pop\n        /* \"#utility.yul\":964:1133   */\n      swap3\n      swap2\n      pop\n      pop\n      jump\t// out\n        /* \"#utility.yul\":1139:1308   */\n    tag_38:\n        /* \"#utility.yul\":1279:1300   */\n      0x64656c656761746563616c6c206661696c656400000000000000000000000000\n        /* \"#utility.yul\":1275:1276   */\n      0x00\n        /* \"#utility.yul\":1267:1273   */\n      dup3\n        /* \"#utility.yul\":1263:1277   */\n      add\n        /* \"#utility.yul\":1256:1301   */\n      mstore\n        /* \"#utility.yul\":1139:1308   */\n      pop\n      jump\t// out\n        /* \"#utility.yul\":1314:1680   */\n    tag_39:\n        /* \"#utility.yul\":1456:1459   */\n      0x00\n        /* \"#utility.yul\":1477:1544   */\n      tag_61\n        /* \"#utility.yul\":1541:1543   */\n      0x13\n        /* \"#utility.yul\":1536:1539   */\n      dup4\n        /* \"#utility.yul\":1477:1544   */\n      tag_37\n      jump\t// in\n    tag_61:\n        /* \"#utility.yul\":1470:1544   */\n      swap2\n      pop\n        /* \"#utility.yul\":1553:1646   */\n      tag_62\n        /* \"#utility.yul\":1642:1645   */\n      dup3\n        /* \"#utility.yul\":1553:1646   */\n      tag_38\n      jump\t// in\n    tag_62:\n        /* \"#utility.yul\":1671:1673   */\n      0x20\n        /* \"#utility.yul\":1666:1669   */\n      dup3\n        /* \"#utility.yul\":1662:1674   */\n      add\n        /* \"#utility.yul\":1655:1674   */\n      swap1\n      pop\n        /* \"#utility.yul\":1314:1680   */\n      swap2\n      swap1\n      pop\n      jump\t// out\n        /* \"#utility.yul\":1686:2105   */\n    tag_17:\n        /* \"#utility.yul\":1852:1856   */\n      0x00\n        /* \"#utility.yul\":1890:1892   */\n      0x20\n        /* \"#utility.yul\":1879:1888   */\n      dup3\n        /* \"#utility.yul\":1875:1893   */\n      add\n        /* \"#utility.yul\":1867:1893   */\n      swap1\n      pop\n        /* \"#utility.yul\":1939:1948   */\n      dup2\n        /* \"#utility.yul\":1933:1937   */\n      dup2\n        /* \"#utility.yul\":1929:1949   */\n      sub\n        /* \"#utility.yul\":1925:1926   */\n      0x00\n        /* \"#utility.yul\":1914:1923   */\n      dup4\n        /* \"#utility.yul\":1910:1927   */\n      add\n        /* \"#utility.yul\":1903:1950   */\n      mstore\n        /* \"#utility.yul\":1967:2098   */\n      tag_64\n        /* \"#utility.yul\":2093:2097   */\n      dup2\n        /* \"#utility.yul\":1967:2098   */\n      tag_39\n      jump\t// in\n    tag_64:\n        /* \"#utility.yul\":1959:2098   */\n      swap1\n      pop\n        /* \"#utility.yul\":1686:2105   */\n      swap2\n      swap1\n      pop\n      jump\t// out\n        /* \"#utility.yul\":2111:2188   */\n    tag_40:\n        /* \"#utility.yul\":2148:2155   */\n      0x00\n        /* \"#utility.yul\":2177:2182   */\n      dup2\n        /* \"#utility.yul\":2166:2182   */\n      swap1\n      pop\n        /* \"#utility.yul\":2111:2188   */\n      swap2\n      swap1\n      pop\n      jump\t// out\n        /* \"#utility.yul\":2194:2312   */\n    tag_41:\n        /* \"#utility.yul\":2281:2305   */\n      tag_67\n        /* \"#utility.yul\":2299:2304   */\n      dup2\n        /* \"#utility.yul\":2281:2305   */\n      tag_40\n      jump\t// in\n    tag_67:\n        /* \"#utility.yul\":2276:2279   */\n      dup3\n        /* \"#utility.yul\":2269:2306   */\n      mstore\n        /* \"#utility.yul\":2194:2312   */\n      pop\n      pop\n      jump\t// out\n        /* \"#utility.yul\":2318:2540   */\n    tag_21:\n        /* \"#utility.yul\":2411:2415   */\n      0x00\n        /* \"#utility.yul\":2449:2451   */\n      0x20\n        /* \"#utility.yul\":2438:2447   */\n      dup3\n        /* \"#utility.yul\":2434:2452   */\n      add\n        /* \"#utility.yul\":2426:2452   */\n      swap1\n      pop\n        /* \"#utility.yul\":2462:2533   */\n      tag_69\n        /* \"#utility.yul\":2530:2531   */\n      0x00\n        /* \"#utility.yul\":2519:2528   */\n      dup4\n        /* \"#utility.yul\":2515:2532   */\n      add\n        /* \"#utility.yul\":2506:2512   */\n      dup5\n        /* \"#utility.yul\":2462:2533   */\n      tag_41\n      jump\t// in\n    tag_69:\n        /* \"#utility.yul\":2318:2540   */\n      swap3\n      swap2\n      pop\n      pop\n      jump\t// out\n        /* \"#utility.yul\":2627:2744   */\n    tag_43:\n        /* \"#utility.yul\":2736:2737   */\n      0x00\n        /* \"#utility.yul\":2733:2734   */\n      dup1\n        /* \"#utility.yul\":2726:2738   */\n      revert\n        /* \"#utility.yul\":2873:2999   */\n    tag_45:\n        /* \"#utility.yul\":2910:2917   */\n      0x00\n        /* \"#utility.yul\":2950:2992   */\n      0xffffffffffffffffffffffffffffffffffffffff\n        /* \"#utility.yul\":2943:2948   */\n      dup3\n        /* \"#utility.yul\":2939:2993   */\n      and\n        /* \"#utility.yul\":2928:2993   */\n      swap1\n      pop\n        /* \"#utility.yul\":2873:2999   */\n      swap2\n      swap1\n      pop\n      jump\t// out\n        /* \"#utility.yul\":3005:3101   */\n    tag_46:\n        /* \"#utility.yul\":3042:3049   */\n      0x00\n        /* \"#utility.yul\":3071:3095   */\n      tag_75\n        /* \"#utility.yul\":3089:3094   */\n      dup3\n        /* \"#utility.yul\":3071:3095   */\n      tag_45\n      jump\t// in\n    tag_75:\n        /* \"#utility.yul\":3060:3095   */\n      swap1\n      pop\n        /* \"#utility.yul\":3005:3101   */\n      swap2\n      swap1\n      pop\n      jump\t// out\n        /* \"#utility.yul\":3107:3229   */\n    tag_47:\n        /* \"#utility.yul\":3180:3204   */\n      tag_77\n        /* \"#utility.yul\":3198:3203   */\n      dup2\n        /* \"#utility.yul\":3180:3204   */\n      tag_46\n      jump\t// in\n    tag_77:\n        /* \"#utility.yul\":3173:3178   */\n      dup2\n        /* \"#utility.yul\":3170:3205   */\n      eq\n        /* \"#utility.yul\":3160:3223   */\n      tag_78\n      jumpi\n        /* \"#utility.yul\":3219:3220   */\n      0x00\n        /* \"#utility.yul\":3216:3217   */\n      dup1\n        /* \"#utility.yul\":3209:3221   */\n      revert\n        /* \"#utility.yul\":3160:3223   */\n    tag_78:\n        /* \"#utility.yul\":3107:3229   */\n      pop\n      jump\t// out\n        /* \"#utility.yul\":3235:3374   */\n    tag_48:\n        /* \"#utility.yul\":3281:3286   */\n      0x00\n        /* \"#utility.yul\":3319:3325   */\n      dup2\n        /* \"#utility.yul\":3306:3326   */\n      calldataload\n        /* \"#utility.yul\":3297:3326   */\n      swap1\n      pop\n        /* \"#utility.yul\":3335:3368   */\n      tag_80\n        /* \"#utility.yul\":3362:3367   */\n      dup2\n        /* \"#utility.yul\":3335:3368   */\n      tag_47\n      jump\t// in\n    tag_80:\n        /* \"#utility.yul\":3235:3374   */\n      swap3\n      swap2\n      pop\n      pop\n      jump\t// out\n        /* \"#utility.yul\":3380:3709   */\n    tag_24:\n        /* \"#utility.yul\":3439:3445   */\n      0x00\n        /* \"#utility.yul\":3488:3490   */\n      0x20\n        /* \"#utility.yul\":3476:3485   */\n      dup3\n        /* \"#utility.yul\":3467:3474   */\n      dup5\n        /* \"#utility.yul\":3463:3486   */\n      sub\n        /* \"#utility.yul\":3459:3491   */\n      slt\n        /* \"#utility.yul\":3456:3575   */\n      iszero\n      tag_82\n      jumpi\n        /* \"#utility.yul\":3494:3573   */\n      tag_83\n      tag_43\n      jump\t// in\n    tag_83:\n        /* \"#utility.yul\":3456:3575   */\n    tag_82:\n        /* \"#utility.yul\":3614:3615   */\n      0x00\n        /* \"#utility.yul\":3639:3692   */\n      tag_84\n        /* \"#utility.yul\":3684:3691   */\n      dup5\n        /* \"#utility.yul\":3675:3681   */\n      dup3\n        /* \"#utility.yul\":3664:3673   */\n      dup6\n        /* \"#utility.yul\":3660:3682   */\n      add\n        /* \"#utility.yul\":3639:3692   */\n      tag_48\n      jump\t// in\n    tag_84:\n        /* \"#utility.yul\":3629:3692   */\n      swap2\n      pop\n        /* \"#utility.yul\":3585:3702   */\n      pop\n        /* \"#utility.yul\":3380:3709   */\n      swap3\n      swap2\n      pop\n      pop\n      jump\t// out\n        /* \"#utility.yul\":3715:3833   */\n    tag_49:\n        /* \"#utility.yul\":3802:3826   */\n      tag_86\n        /* \"#utility.yul\":3820:3825   */\n      dup2\n        /* \"#utility.yul\":3802:3826   */\n      tag_46\n      jump\t// in\n    tag_86:\n        /* \"#utility.yul\":3797:3800   */\n      dup3\n        /* \"#utility.yul\":3790:3827   */\n      mstore\n        /* \"#utility.yul\":3715:3833   */\n      pop\n      pop\n      jump\t// out\n        /* \"#utility.yul\":3839:4061   */\n    tag_29:\n        /* \"#utility.yul\":3932:3936   */\n      0x00\n        /* \"#utility.yul\":3970:3972   */\n      0x20\n        /* \"#utility.yul\":3959:3968   */\n      dup3\n        /* \"#utility.yul\":3955:3973   */\n      add\n        /* \"#utility.yul\":3947:3973   */\n      swap1\n      pop\n        /* \"#utility.yul\":3983:4054   */\n      tag_88\n        /* \"#utility.yul\":4051:4052   */\n      0x00\n        /* \"#utility.yul\":4040:4049   */\n      dup4\n        /* \"#utility.yul\":4036:4053   */\n      add\n        /* \"#utility.yul\":4027:4033   */\n      dup5\n        /* \"#utility.yul\":3983:4054   */\n      tag_49\n      jump\t// in\n    tag_88:\n        /* \"#utility.yul\":3839:4061   */\n      swap3\n      swap2\n      pop\n      pop\n      jump\t// out\n\n    auxdata: 0xa264697066735822122072eaf9f9cb578dc4b93e3ece0f8c2ef332a3f351ba8e065059c83a2a2646856364736f6c63430008120033\n}\n",
				"bytecode": {
					"linkReferences": {},
					"object": "608060405234801561001057600080fd5b5060405161053c38038061053c833981810160405281019061003291906100db565b806000806101000a81548173ffffffffffffffffffffffffffffffffffffffff021916908373ffffffffffffffffffffffffffffffffffffffff16021790555050610108565b600080fd5b600073ffffffffffffffffffffffffffffffffffffffff82169050919050565b60006100a88261007d565b9050919050565b6100b88161009d565b81146100c357600080fd5b50565b6000815190506100d5816100af565b92915050565b6000602082840312156100f1576100f0610078565b5b60006100ff848285016100c6565b91505092915050565b610425806101176000396000f3fe608060405234801561001057600080fd5b50600436106100505760003560e01c806306661abd146101235780633659cfe614610141578063ca724f2d1461015d578063d7dfa0dd1461017b57610051565b5b60008060008054906101000a900473ffffffffffffffffffffffffffffffffffffffff1673ffffffffffffffffffffffffffffffffffffffff1660003660405161009c92919061026b565b600060405180830381855af49150503d80600081146100d7576040519150601f19603f3d011682016040523d82523d6000602084013e6100dc565b606091505b509150915081610121576040517f08c379a0000000000000000000000000000000000000000000000000000000008152600401610118906102e1565b60405180910390fd5b005b61012b610199565b604051610138919061031a565b60405180910390f35b61015b60048036038101906101569190610398565b61019f565b005b6101656101e2565b60405161017291906103d4565b60405180910390f35b610183610208565b60405161019091906103d4565b60405180910390f35b60015481565b806000806101000a81548173ffffffffffffffffffffffffffffffffffffffff021916908373ffffffffffffffffffffffffffffffffffffffff16021790555050565b600260009054906101000a900473ffffffffffffffffffffffffffffffffffffffff1681565b60008054906101000a900473ffffffffffffffffffffffffffffffffffffffff1681565b600081905092915050565b82818337600083830152505050565b6000610252838561022c565b935061025f838584610237565b82840190509392505050565b6000610278828486610246565b91508190509392505050565b600082825260208201905092915050565b7f64656c656761746563616c6c206661696c656400000000000000000000000000600082015250565b60006102cb601383610284565b91506102d682610295565b602082019050919050565b600060208201905081810360008301526102fa816102be565b9050919050565b6000819050919050565b61031481610301565b82525050565b600060208201905061032f600083018461030b565b92915050565b600080fd5b600073ffffffffffffffffffffffffffffffffffffffff82169050919050565b60006103658261033a565b9050919050565b6103758161035a565b811461038057600080fd5b50565b6000813590506103928161036c565b92915050565b6000602082840312156103ae576103ad610335565b5b60006103bc84828501610383565b91505092915050565b6103ce8161035a565b82525050565b60006020820190506103e960008301846103c5565b9291505056fea264697066735822122072eaf9f9cb578dc4b93e3ece0f8c2ef332a3f351ba8e065059c83a2a2646856364736f6c63430008120033",
					"opcodes": "PUSH1 0x80 PUSH1 0x40 MSTORE CALLVALUE DUP1 ISZERO PUSH2 0x10 JUMPI PUSH1 0x0 DUP1 REVERT JUMPDEST POP PUSH1 0x40 MLOAD PUSH2 0x53C CODESIZE SUB DUP1 PUSH2 0x53C DUP4 CODECOPY DUP2 DUP2 ADD PUSH1 0x40 MSTORE DUP2 ADD SWAP1 PUSH2 0x32 SWAP2 SWAP1 PUSH2 0xDB JUMP JUMPDEST DUP1 PUSH1 0x0 DUP1 PUSH2 0x100 EXP DUP2 SLOAD DUP2 PUSH20 0xFFFFFFFFFFFFFFFFFFFFFFFFFFFFFFFFFFFFFFFF MUL NOT AND SWAP1 DUP4 PUSH20 0xFFFFFFFFFFFFFFFFFFFFFFFFFFFFFFFFFFFFFFFF AND MUL OR SWAP1 SSTORE POP POP PUSH2 0x108 JUMP JUMPDEST PUSH1 0x0 DUP1 REVERT JUMPDEST PUSH1 0x0 PUSH20 0xFFFFFFFFFFFFFFFFFFFFFFFFFFFFFFFFFFFFFFFF DUP3 AND SWAP1 POP SWAP2 SWAP1 POP JUMP JUMPDEST PUSH1 0x0 PUSH2 0xA8 DUP3 PUSH2 0x7D JUMP JUMPDEST SWAP1 POP SWAP2 SWAP1 POP JUMP JUMPDEST PUSH2 0xB8 DUP2 PUSH2 0x9D JUMP JUMPDEST DUP2 EQ PUSH2 0xC3 JUMPI PUSH1 0x0 DUP1 REVERT JUMPDEST POP JUMP JUMPDEST PUSH1 0x0 DUP2 MLOAD SWAP1 POP PUSH2 0xD5 DUP2 PUSH2 0xAF JUMP JUMPDEST SWAP3 SWAP2 POP POP JUMP JUMPDEST PUSH1 0x0 PUSH1 0x20 DUP3 DUP5 SUB SLT ISZERO PUSH2 0xF1 JUMPI PUSH2 0xF0 PUSH2 0x78 JUMP JUMPDEST JUMPDEST PUSH1 0x0 PUSH2 0xFF DUP5 DUP3 DUP6 ADD PUSH2 0xC6 JUMP JUMPDEST SWAP2 POP POP SWAP3 SWAP2 POP POP JUMP JUMPDEST PUSH2 0x425 DUP1 PUSH2 0x117 PUSH1 0x0 CODECOPY PUSH1 0x0 RETURN INVALID PUSH1 0x80 PUSH1 0x40 MSTORE CALLVALUE DUP1 ISZERO PUSH2 0x10 JUMPI PUSH1 0x0 DUP1 REVERT JUMPDEST POP PUSH1 0x4 CALLDATASIZE LT PUSH2 0x50 JUMPI PUSH1 0x0 CALLDATALOAD PUSH1 0xE0 SHR DUP1 PUSH4 0x6661ABD EQ PUSH2 0x123 JUMPI DUP1 PUSH4 0x3659CFE6 EQ PUSH2 0x141 JUMPI DUP1 PUSH4 0xCA724F2D EQ PUSH2 0x15D JUMPI DUP1 PUSH4 0xD7DFA0DD EQ PUSH2 0x17B JUMPI PUSH2 0x51 JUMP JUMPDEST JUMPDEST PUSH1 0x0 DUP1 PUSH1 0x0 DUP1 SLOAD SWAP1 PUSH2 0x100 EXP SWAP1 DIV PUSH20 0xFFFFFFFFFFFFFFFFFFFFFFFFFFFFFFFFFFFFFFFF AND PUSH20 0xFFFFFFFFFFFFFFFFFFFFFFFFFFFFFFFFFFFFFFFF AND PUSH1 0x0 CALLDATASIZE PUSH1 0x40 MLOAD PUSH2 0x9C SWAP3 SWAP2 SWAP1 PUSH2 0x26B JUMP JUMPDEST PUSH1 0x0 PUSH1 0x40 MLOAD DUP1 DUP4 SUB DUP2 DUP6 GAS DELEGATECALL SWAP2 POP POP RETURNDATASIZE DUP1 PUSH1 0x0 DUP2 EQ PUSH2 0xD7 JUMPI PUSH1 0x40 MLOAD SWAP2 POP PUSH1 0x1F NOT PUSH1 0x3F RETURNDATASIZE ADD AND DUP3 ADD PUSH1 0x40 MSTORE RETURNDATASIZE DUP3 MSTORE RETURNDATASIZE PUSH1 0x0 PUSH1 0x20 DUP5 ADD RETURNDATACOPY PUSH2 0xDC JUMP JUMPDEST PUSH1 0x60 SWAP2 POP JUMPDEST POP SWAP2 POP SWAP2 POP DUP2 PUSH2 0x121 JUMPI PUSH1 0x40 MLOAD PUSH32 0x8C379A000000000000000000000000000000000000000000000000000000000 DUP2 MSTORE PUSH1 0x4 ADD PUSH2 0x118 SWAP1 PUSH2 0x2E1 JUMP JUMPDEST PUSH1 0x40 MLOAD DUP1 SWAP2 SUB SWAP1 REVERT JUMPDEST STOP JUMPDEST PUSH2 0x12B PUSH2 0x199 JUMP JUMPDEST PUSH1 0x40 MLOAD PUSH2 0x138 SWAP2 SWAP1 PUSH2 0x31A JUMP JUMPDEST PUSH1 0x40 MLOAD DUP1 SWAP2 SUB SWAP1 RETURN JUMPDEST PUSH2 0x15B PUSH1 0x4 DUP1 CALLDATASIZE SUB DUP2 ADD SWAP1 PUSH2 0x156 SWAP2 SWAP1 PUSH2 0x398 JUMP JUMPDEST PUSH2 0x19F JUMP JUMPDEST STOP JUMPDEST PUSH2 0x165 PUSH2 0x1E2 JUMP JUMPDEST PUSH1 0x40 MLOAD PUSH2 0x172 SWAP2 SWAP1 PUSH2 0x3D4 JUMP JUMPDEST PUSH1 0x40 MLOAD DUP1 SWAP2 SUB SWAP1 RETURN JUMPDEST PUSH2 0x183 PUSH2 0x208 JUMP JUMPDEST PUSH1 0x40 MLOAD PUSH2 0x190 SWAP2 SWAP1 PUSH2 0x3D4 JUMP JUMPDEST PUSH1 0x40 MLOAD DUP1 SWAP2 SUB SWAP1 RETURN JUMPDEST PUSH1 0x1 SLOAD DUP2 JUMP JUMPDEST DUP1 PUSH1 0x0 DUP1 PUSH2 0x100 EXP DUP2 SLOAD DUP2 PUSH20 0xFFFFFFFFFFFFFFFFFFFFFFFFFFFFFFFFFFFFFFFF MUL NOT AND SWAP1 DUP4 PUSH20 0xFFFFFFFFFFFFFFFFFFFFFFFFFFFFFFFFFFFFFFFF AND MUL OR SWAP1 SSTORE POP POP JUMP JUMPDEST PUSH1 0x2 PUSH1 0x0 SWAP1 SLOAD SWAP1 PUSH2 0x100 EXP SWAP1 DIV PUSH20 0xFFFFFFFFFFFFFFFFFFFFFFFFFFFFFFFFFFFFFFFF AND DUP2 JUMP JUMPDEST PUSH1 0x0 DUP1 SLOAD SWAP1 PUSH2 0x100 EXP SWAP1 DIV PUSH20 0xFFFFFFFFFFFFFFFFFFFFFFFFFFFFFFFFFFFFFFFF AND DUP2 JUMP JUMPDEST PUSH1 0x0 DUP2 SWAP1 POP SWAP3 SWAP2 POP POP JUMP JUMPDEST DUP3 DUP2 DUP4 CALLDATACOPY PUSH1 0x0 DUP4 DUP4 ADD MSTORE POP POP POP JUMP JUMPDEST PUSH1 0x0 PUSH2 0x252 DUP4 DUP6 PUSH2 0x22C JUMP JUMPDEST SWAP4 POP PUSH2 0x25F DUP4 DUP6 DUP5 PUSH2 0x237 JUMP JUMPDEST DUP3 DUP5 ADD SWAP1 POP SWAP4 SWAP3 POP POP POP JUMP JUMPDEST PUSH1 0x0 PUSH2 0x278 DUP3 DUP5 DUP7 PUSH2 0x246 JUMP JUMPDEST SWAP2 POP DUP2 SWAP1 POP SWAP4 SWAP3 POP POP POP JUMP JUMPDEST PUSH1 0x0 DUP3 DUP3 MSTORE PUSH1 0x20 DUP3 ADD SWAP1 POP SWAP3 SWAP2 POP POP JUMP JUMPDEST PUSH32 0x64656C656761746563616C6C206661696C656400000000000000000000000000 PUSH1 0x0 DUP3 ADD MSTORE POP JUMP JUMPDEST PUSH1 0x0 PUSH2 0x2CB PUSH1 0x13 DUP4 PUSH2 0x284 JUMP JUMPDEST SWAP2 POP PUSH2 0x2D6 DUP3 PUSH2 0x295 JUMP JUMPDEST PUSH1 0x20 DUP3 ADD SWAP1 POP SWAP2 SWAP1 POP JUMP JUMPDEST PUSH1 0x0 PUSH1 0x20 DUP3 ADD SWAP1 POP DUP2 DUP2 SUB PUSH1 0x0 DUP4 ADD MSTORE PUSH2 0x2FA DUP2 PUSH2 0x2BE JUMP JUMPDEST SWAP1 POP SWAP2 SWAP1 POP JUMP JUMPDEST PUSH1 0x0 DUP2 SWAP1 POP SWAP2 SWAP1 POP JUMP JUMPDEST PUSH2 0x314 DUP2 PUSH2 0x301 JUMP JUMPDEST DUP3 MSTORE POP POP JUMP JUMPDEST PUSH1 0x0 PUSH1 0x20 DUP3 ADD SWAP1 POP PUSH2 0x32F PUSH1 0x0 DUP4 ADD DUP5 PUSH2 0x30B JUMP JUMPDEST SWAP3 SWAP2 POP POP JUMP JUMPDEST PUSH1 0x0 DUP1 REVERT JUMPDEST PUSH1 0x0 PUSH20 0xFFFFFFFFFFFFFFFFFFFFFFFFFFFFFFFFFFFFFFFF DUP3 AND SWAP1 POP SWAP2 SWAP1 POP JUMP JUMPDEST PUSH1 0x0 PUSH2 0x365 DUP3 PUSH2 0x33A JUMP JUMPDEST SWAP1 POP SWAP2 SWAP1 POP JUMP JUMPDEST PUSH2 0x375 DUP2 PUSH2 0x35A JUMP JUMPDEST DUP2 EQ PUSH2 0x380 JUMPI PUSH1 0x0 DUP1 REVERT JUMPDEST POP JUMP JUMPDEST PUSH1 0x0 DUP2 CALLDATALOAD SWAP1 POP PUSH2 0x392 DUP2 PUSH2 0x36C JUMP JUMPDEST SWAP3 SWAP2 POP POP JUMP JUMPDEST PUSH1 0x0 PUSH1 0x20 DUP3 DUP5 SUB SLT ISZERO PUSH2 0x3AE JUMPI PUSH2 0x3AD PUSH2 0x335 JUMP JUMPDEST JUMPDEST PUSH1 0x0 PUSH2 0x3BC DUP5 DUP3 DUP6 ADD PUSH2 0x383 JUMP JUMPDEST SWAP2 POP POP SWAP3 SWAP2 POP POP JUMP JUMPDEST PUSH2 0x3CE DUP2 PUSH2 0x35A JUMP JUMPDEST DUP3 MSTORE POP POP JUMP JUMPDEST PUSH1 0x0 PUSH1 0x20 DUP3 ADD SWAP1 POP PUSH2 0x3E9 PUSH1 0x0 DUP4 ADD DUP5 PUSH2 0x3C5 JUMP JUMPDEST SWAP3 SWAP2 POP POP JUMP INVALID LOG2 PUSH5 0x6970667358 0x22 SLT KECCAK256 PUSH19 0xEAF9F9CB578DC4B93E3ECE0F8C2EF332A3F351 0xBA DUP15 MOD POP MSIZE 0xC8 GASPRICE 0x2A 0x26 CHAINID DUP6 PUSH4 0x64736F6C PUSH4 0x43000812 STOP CALLER "
				},
				"gasEstimates": {
					"creation": {
						"codeDepositCost": "212200",
						"executionCost": "infinite",
						"totalCost": "infinite"
					},
					"external": {
						"": "infinite",
						"count()": "2407",
						"logic()": "2555",
						"placeholder2()": "2536",
						"upgradeTo(address)": "24722"
					}
				},
				"methodIdentifiers": {
					"count()": "06661abd",
					"logic()": "d7dfa0dd",
					"placeholder2()": "ca724f2d",
					"upgradeTo(address)": "3659cfe6"
				}
			},
			"storageLayout": {
				"storage": [
					{
						"astId": 40,
						"contract": "proxy/basic-proxy.sol:Proxy",
						"label": "logic",
						"offset": 0,
						"slot": "0",
						"type": "t_address"
					},
					{
						"astId": 42,
						"contract": "proxy/basic-proxy.sol:Proxy",
						"label": "count",
						"offset": 0,
						"slot": "1",
						"type": "t_uint256"
					},
					{
						"astId": 44,
						"contract": "proxy/basic-proxy.sol:Proxy",
						"label": "placeholder2",
						"offset": 0,
						"slot": "2",
						"type": "t_address"
					}
				],
				"types": {
					"t_address": {
						"encoding": "inplace",
						"label": "address",
						"numberOfBytes": "20"
					},
					"t_uint256": {
						"encoding": "inplace",
						"label": "uint256",
						"numberOfBytes": "32"
					}
				}
			},
			"userdoc": {
				"kind": "user",
				"methods": {},
				"version": 1
			}
		}
	}
}