{
	"data": {
		"bytecode": {
			"linkReferences": {},
			"object": "60806040526040518060400160405280600881526020017f4242444f4c4c4152000000000000000000000000000000000000000000000000815250600190816200004a9190620003a5565b506040518060400160405280600481526020017f4242444c0000000000000000000000000000000000000000000000000000000081525060029081620000919190620003a5565b506004600360006101000a81548160ff021916908360ff160217905550348015620000bb57600080fd5b5060405162000c9638038062000c968339818101604052810190620000e19190620004c2565b806000803373ffffffffffffffffffffffffffffffffffffffff1673ffffffffffffffffffffffffffffffffffffffff1681526020019081526020016000208190555050620004f4565b600081519050919050565b7f4e487b7100000000000000000000000000000000000000000000000000000000600052604160045260246000fd5b7f4e487b7100000000000000000000000000000000000000000000000000000000600052602260045260246000fd5b60006002820490506001821680620001ad57607f821691505b602082108103620001c357620001c262000165565b5b50919050565b60008190508160005260206000209050919050565b60006020601f8301049050919050565b600082821b905092915050565b6000600883026200022d7fffffffffffffffffffffffffffffffffffffffffffffffffffffffffffffffff82620001ee565b620002398683620001ee565b95508019841693508086168417925050509392505050565b6000819050919050565b6000819050919050565b600062000286620002806200027a8462000251565b6200025b565b62000251565b9050919050565b6000819050919050565b620002a28362000265565b620002ba620002b1826200028d565b848454620001fb565b825550505050565b600090565b620002d1620002c2565b620002de81848462000297565b505050565b5b818110156200030657620002fa600082620002c7565b600181019050620002e4565b5050565b601f82111562000355576200031f81620001c9565b6200032a84620001de565b810160208510156200033a578190505b620003526200034985620001de565b830182620002e3565b50505b505050565b600082821c905092915050565b60006200037a600019846008026200035a565b1980831691505092915050565b600062000395838362000367565b9150826002028217905092915050565b620003b0826200012b565b67ffffffffffffffff811115620003cc57620003cb62000136565b5b620003d8825462000194565b620003e58282856200030a565b600060209050601f8311600181146200041d576000841562000408578287015190505b62000414858262000387565b86555062000484565b601f1984166200042d86620001c9565b60005b82811015620004575784890151825560018201915060208501945060208101905062000430565b8683101562000477578489015162000473601f89168262000367565b8355505b6001600288020188555050505b505050505050565b600080fd5b6200049c8162000251565b8114620004a857600080fd5b50565b600081519050620004bc8162000491565b92915050565b600060208284031215620004db57620004da6200048c565b5b6000620004eb84828501620004ab565b91505092915050565b61079280620005046000396000f3fe608060405234801561001057600080fd5b50600436106100575760003560e01c806306fdde031461005c578063313ce5671461007a57806370a082311461009857806395d89b41146100c8578063a9059cbb146100e6575b600080fd5b610064610102565b604051610071919061044a565b60405180910390f35b610082610190565b60405161008f9190610488565b60405180910390f35b6100b260048036038101906100ad9190610506565b6101a3565b6040516100bf919061054c565b60405180910390f35b6100d06101bb565b6040516100dd919061044a565b60405180910390f35b61010060048036038101906100fb9190610593565b610249565b005b6001805461010f90610602565b80601f016020809104026020016040519081016040528092919081815260200182805461013b90610602565b80156101885780601f1061015d57610100808354040283529160200191610188565b820191906000526020600020905b81548152906001019060200180831161016b57829003601f168201915b505050505081565b600360009054906101000a900460ff1681565b60006020528060005260406000206000915090505481565b600280546101c890610602565b80601f01602080910402602001604051908101604052809291908181526020018280546101f490610602565b80156102415780601f1061021657610100808354040283529160200191610241565b820191906000526020600020905b81548152906001019060200180831161022457829003601f168201915b505050505081565b60008060003373ffffffffffffffffffffffffffffffffffffffff1673ffffffffffffffffffffffffffffffffffffffff16815260200190815260200160002054905060008060008573ffffffffffffffffffffffffffffffffffffffff1673ffffffffffffffffffffffffffffffffffffffff16815260200190815260200160002054905081831115610312576040517f08c379a0000000000000000000000000000000000000000000000000000000008152600401610309906106a5565b60405180910390fd5b828261031e91906106f4565b9150828161032c9190610728565b9050816000803373ffffffffffffffffffffffffffffffffffffffff1673ffffffffffffffffffffffffffffffffffffffff16815260200190815260200160002081905550806000808673ffffffffffffffffffffffffffffffffffffffff1673ffffffffffffffffffffffffffffffffffffffff1681526020019081526020016000208190555050505050565b600081519050919050565b600082825260208201905092915050565b60005b838110156103f45780820151818401526020810190506103d9565b60008484015250505050565b6000601f19601f8301169050919050565b600061041c826103ba565b61042681856103c5565b93506104368185602086016103d6565b61043f81610400565b840191505092915050565b600060208201905081810360008301526104648184610411565b905092915050565b600060ff82169050919050565b6104828161046c565b82525050565b600060208201905061049d6000830184610479565b92915050565b600080fd5b600073ffffffffffffffffffffffffffffffffffffffff82169050919050565b60006104d3826104a8565b9050919050565b6104e3816104c8565b81146104ee57600080fd5b50565b600081359050610500816104da565b92915050565b60006020828403121561051c5761051b6104a3565b5b600061052a848285016104f1565b91505092915050565b6000819050919050565b61054681610533565b82525050565b6000602082019050610561600083018461053d565b92915050565b61057081610533565b811461057b57600080fd5b50565b60008135905061058d81610567565b92915050565b600080604083850312156105aa576105a96104a3565b5b60006105b8858286016104f1565b92505060206105c98582860161057e565b9150509250929050565b7f4e487b7100000000000000000000000000000000000000000000000000000000600052602260045260246000fd5b6000600282049050600182168061061a57607f821691505b60208210810361062d5761062c6105d3565b5b50919050565b7f66726f6d206163636f756e7420646f206e6f74206861766520656e6f7567682060008201527f6d6f6e6579210000000000000000000000000000000000000000000000000000602082015250565b600061068f6026836103c5565b915061069a82610633565b604082019050919050565b600060208201905081810360008301526106be81610682565b9050919050565b7f4e487b7100000000000000000000000000000000000000000000000000000000600052601160045260246000fd5b60006106ff82610533565b915061070a83610533565b9250828203905081811115610722576107216106c5565b5b92915050565b600061073382610533565b915061073e83610533565b9250828201905080821115610756576107556106c5565b5b9291505056fea264697066735822122026e39d4c50686b683c05b1fc80a04acfd6dda11004cc7a22007874f6df9f87c564736f6c63430008120033",
			"opcodes": "PUSH1 0x80 PUSH1 0x40 MSTORE PUSH1 0x40 MLOAD DUP1 PUSH1 0x40 ADD PUSH1 0x40 MSTORE DUP1 PUSH1 0x8 DUP2 MSTORE PUSH1 0x20 ADD PUSH32 0x4242444F4C4C4152000000000000000000000000000000000000000000000000 DUP2 MSTORE POP PUSH1 0x1 SWAP1 DUP2 PUSH3 0x4A SWAP2 SWAP1 PUSH3 0x3A5 JUMP JUMPDEST POP PUSH1 0x40 MLOAD DUP1 PUSH1 0x40 ADD PUSH1 0x40 MSTORE DUP1 PUSH1 0x4 DUP2 MSTORE PUSH1 0x20 ADD PUSH32 0x4242444C00000000000000000000000000000000000000000000000000000000 DUP2 MSTORE POP PUSH1 0x2 SWAP1 DUP2 PUSH3 0x91 SWAP2 SWAP1 PUSH3 0x3A5 JUMP JUMPDEST POP PUSH1 0x4 PUSH1 0x3 PUSH1 0x0 PUSH2 0x100 EXP DUP2 SLOAD DUP2 PUSH1 0xFF MUL NOT AND SWAP1 DUP4 PUSH1 0xFF AND MUL OR SWAP1 SSTORE POP CALLVALUE DUP1 ISZERO PUSH3 0xBB JUMPI PUSH1 0x0 DUP1 REVERT JUMPDEST POP PUSH1 0x40 MLOAD PUSH3 0xC96 CODESIZE SUB DUP1 PUSH3 0xC96 DUP4 CODECOPY DUP2 DUP2 ADD PUSH1 0x40 MSTORE DUP2 ADD SWAP1 PUSH3 0xE1 SWAP2 SWAP1 PUSH3 0x4C2 JUMP JUMPDEST DUP1 PUSH1 0x0 DUP1 CALLER PUSH20 0xFFFFFFFFFFFFFFFFFFFFFFFFFFFFFFFFFFFFFFFF AND PUSH20 0xFFFFFFFFFFFFFFFFFFFFFFFFFFFFFFFFFFFFFFFF AND DUP2 MSTORE PUSH1 0x20 ADD SWAP1 DUP2 MSTORE PUSH1 0x20 ADD PUSH1 0x0 KECCAK256 DUP2 SWAP1 SSTORE POP POP PUSH3 0x4F4 JUMP JUMPDEST PUSH1 0x0 DUP2 MLOAD SWAP1 POP SWAP2 SWAP1 POP JUMP JUMPDEST PUSH32 0x4E487B7100000000000000000000000000000000000000000000000000000000 PUSH1 0x0 MSTORE PUSH1 0x41 PUSH1 0x4 MSTORE PUSH1 0x24 PUSH1 0x0 REVERT JUMPDEST PUSH32 0x4E487B7100000000000000000000000000000000000000000000000000000000 PUSH1 0x0 MSTORE PUSH1 0x22 PUSH1 0x4 MSTORE PUSH1 0x24 PUSH1 0x0 REVERT JUMPDEST PUSH1 0x0 PUSH1 0x2 DUP3 DIV SWAP1 POP PUSH1 0x1 DUP3 AND DUP1 PUSH3 0x1AD JUMPI PUSH1 0x7F DUP3 AND SWAP2 POP JUMPDEST PUSH1 0x20 DUP3 LT DUP2 SUB PUSH3 0x1C3 JUMPI PUSH3 0x1C2 PUSH3 0x165 JUMP JUMPDEST JUMPDEST POP SWAP2 SWAP1 POP JUMP JUMPDEST PUSH1 0x0 DUP2 SWAP1 POP DUP2 PUSH1 0x0 MSTORE PUSH1 0x20 PUSH1 0x0 KECCAK256 SWAP1 POP SWAP2 SWAP1 POP JUMP JUMPDEST PUSH1 0x0 PUSH1 0x20 PUSH1 0x1F DUP4 ADD DIV SWAP1 POP SWAP2 SWAP1 POP JUMP JUMPDEST PUSH1 0x0 DUP3 DUP3 SHL SWAP1 POP SWAP3 SWAP2 POP POP JUMP JUMPDEST PUSH1 0x0 PUSH1 0x8 DUP4 MUL PUSH3 0x22D PUSH32 0xFFFFFFFFFFFFFFFFFFFFFFFFFFFFFFFFFFFFFFFFFFFFFFFFFFFFFFFFFFFFFFFF DUP3 PUSH3 0x1EE JUMP JUMPDEST PUSH3 0x239 DUP7 DUP4 PUSH3 0x1EE JUMP JUMPDEST SWAP6 POP DUP1 NOT DUP5 AND SWAP4 POP DUP1 DUP7 AND DUP5 OR SWAP3 POP POP POP SWAP4 SWAP3 POP POP POP JUMP JUMPDEST PUSH1 0x0 DUP2 SWAP1 POP SWAP2 SWAP1 POP JUMP JUMPDEST PUSH1 0x0 DUP2 SWAP1 POP SWAP2 SWAP1 POP JUMP JUMPDEST PUSH1 0x0 PUSH3 0x286 PUSH3 0x280 PUSH3 0x27A DUP5 PUSH3 0x251 JUMP JUMPDEST PUSH3 0x25B JUMP JUMPDEST PUSH3 0x251 JUMP JUMPDEST SWAP1 POP SWAP2 SWAP1 POP JUMP JUMPDEST PUSH1 0x0 DUP2 SWAP1 POP SWAP2 SWAP1 POP JUMP JUMPDEST PUSH3 0x2A2 DUP4 PUSH3 0x265 JUMP JUMPDEST PUSH3 0x2BA PUSH3 0x2B1 DUP3 PUSH3 0x28D JUMP JUMPDEST DUP5 DUP5 SLOAD PUSH3 0x1FB JUMP JUMPDEST DUP3 SSTORE POP POP POP POP JUMP JUMPDEST PUSH1 0x0 SWAP1 JUMP JUMPDEST PUSH3 0x2D1 PUSH3 0x2C2 JUMP JUMPDEST PUSH3 0x2DE DUP2 DUP5 DUP5 PUSH3 0x297 JUMP JUMPDEST POP POP POP JUMP JUMPDEST JUMPDEST DUP2 DUP2 LT ISZERO PUSH3 0x306 JUMPI PUSH3 0x2FA PUSH1 0x0 DUP3 PUSH3 0x2C7 JUMP JUMPDEST PUSH1 0x1 DUP2 ADD SWAP1 POP PUSH3 0x2E4 JUMP JUMPDEST POP POP JUMP JUMPDEST PUSH1 0x1F DUP3 GT ISZERO PUSH3 0x355 JUMPI PUSH3 0x31F DUP2 PUSH3 0x1C9 JUMP JUMPDEST PUSH3 0x32A DUP5 PUSH3 0x1DE JUMP JUMPDEST DUP2 ADD PUSH1 0x20 DUP6 LT ISZERO PUSH3 0x33A JUMPI DUP2 SWAP1 POP JUMPDEST PUSH3 0x352 PUSH3 0x349 DUP6 PUSH3 0x1DE JUMP JUMPDEST DUP4 ADD DUP3 PUSH3 0x2E3 JUMP JUMPDEST POP POP JUMPDEST POP POP POP JUMP JUMPDEST PUSH1 0x0 DUP3 DUP3 SHR SWAP1 POP SWAP3 SWAP2 POP POP JUMP JUMPDEST PUSH1 0x0 PUSH3 0x37A PUSH1 0x0 NOT DUP5 PUSH1 0x8 MUL PUSH3 0x35A JUMP JUMPDEST NOT DUP1 DUP4 AND SWAP2 POP POP SWAP3 SWAP2 POP POP JUMP JUMPDEST PUSH1 0x0 PUSH3 0x395 DUP4 DUP4 PUSH3 0x367 JUMP JUMPDEST SWAP2 POP DUP3 PUSH1 0x2 MUL DUP3 OR SWAP1 POP SWAP3 SWAP2 POP POP JUMP JUMPDEST PUSH3 0x3B0 DUP3 PUSH3 0x12B JUMP JUMPDEST PUSH8 0xFFFFFFFFFFFFFFFF DUP2 GT ISZERO PUSH3 0x3CC JUMPI PUSH3 0x3CB PUSH3 0x136 JUMP JUMPDEST JUMPDEST PUSH3 0x3D8 DUP3 SLOAD PUSH3 0x194 JUMP JUMPDEST PUSH3 0x3E5 DUP3 DUP3 DUP6 PUSH3 0x30A JUMP JUMPDEST PUSH1 0x0 PUSH1 0x20 SWAP1 POP PUSH1 0x1F DUP4 GT PUSH1 0x1 DUP2 EQ PUSH3 0x41D JUMPI PUSH1 0x0 DUP5 ISZERO PUSH3 0x408 JUMPI DUP3 DUP8 ADD MLOAD SWAP1 POP JUMPDEST PUSH3 0x414 DUP6 DUP3 PUSH3 0x387 JUMP JUMPDEST DUP7 SSTORE POP PUSH3 0x484 JUMP JUMPDEST PUSH1 0x1F NOT DUP5 AND PUSH3 0x42D DUP7 PUSH3 0x1C9 JUMP JUMPDEST PUSH1 0x0 JUMPDEST DUP3 DUP2 LT ISZERO PUSH3 0x457 JUMPI DUP5 DUP10 ADD MLOAD DUP3 SSTORE PUSH1 0x1 DUP3 ADD SWAP2 POP PUSH1 0x20 DUP6 ADD SWAP5 POP PUSH1 0x20 DUP2 ADD SWAP1 POP PUSH3 0x430 JUMP JUMPDEST DUP7 DUP4 LT ISZERO PUSH3 0x477 JUMPI DUP5 DUP10 ADD MLOAD PUSH3 0x473 PUSH1 0x1F DUP10 AND DUP3 PUSH3 0x367 JUMP JUMPDEST DUP4 SSTORE POP JUMPDEST PUSH1 0x1 PUSH1 0x2 DUP9 MUL ADD DUP9 SSTORE POP POP POP JUMPDEST POP POP POP POP POP POP JUMP JUMPDEST PUSH1 0x0 DUP1 REVERT JUMPDEST PUSH3 0x49C DUP2 PUSH3 0x251 JUMP JUMPDEST DUP2 EQ PUSH3 0x4A8 JUMPI PUSH1 0x0 DUP1 REVERT JUMPDEST POP JUMP JUMPDEST PUSH1 0x0 DUP2 MLOAD SWAP1 POP PUSH3 0x4BC DUP2 PUSH3 0x491 JUMP JUMPDEST SWAP3 SWAP2 POP POP JUMP JUMPDEST PUSH1 0x0 PUSH1 0x20 DUP3 DUP5 SUB SLT ISZERO PUSH3 0x4DB JUMPI PUSH3 0x4DA PUSH3 0x48C JUMP JUMPDEST JUMPDEST PUSH1 0x0 PUSH3 0x4EB DUP5 DUP3 DUP6 ADD PUSH3 0x4AB JUMP JUMPDEST SWAP2 POP POP SWAP3 SWAP2 POP POP JUMP JUMPDEST PUSH2 0x792 DUP1 PUSH3 0x504 PUSH1 0x0 CODECOPY PUSH1 0x0 RETURN INVALID PUSH1 0x80 PUSH1 0x40 MSTORE CALLVALUE DUP1 ISZERO PUSH2 0x10 JUMPI PUSH1 0x0 DUP1 REVERT JUMPDEST POP PUSH1 0x4 CALLDATASIZE LT PUSH2 0x57 JUMPI PUSH1 0x0 CALLDATALOAD PUSH1 0xE0 SHR DUP1 PUSH4 0x6FDDE03 EQ PUSH2 0x5C JUMPI DUP1 PUSH4 0x313CE567 EQ PUSH2 0x7A JUMPI DUP1 PUSH4 0x70A08231 EQ PUSH2 0x98 JUMPI DUP1 PUSH4 0x95D89B41 EQ PUSH2 0xC8 JUMPI DUP1 PUSH4 0xA9059CBB EQ PUSH2 0xE6 JUMPI JUMPDEST PUSH1 0x0 DUP1 REVERT JUMPDEST PUSH2 0x64 PUSH2 0x102 JUMP JUMPDEST PUSH1 0x40 MLOAD PUSH2 0x71 SWAP2 SWAP1 PUSH2 0x44A JUMP JUMPDEST PUSH1 0x40 MLOAD DUP1 SWAP2 SUB SWAP1 RETURN JUMPDEST PUSH2 0x82 PUSH2 0x190 JUMP JUMPDEST PUSH1 0x40 MLOAD PUSH2 0x8F SWAP2 SWAP1 PUSH2 0x488 JUMP JUMPDEST PUSH1 0x40 MLOAD DUP1 SWAP2 SUB SWAP1 RETURN JUMPDEST PUSH2 0xB2 PUSH1 0x4 DUP1 CALLDATASIZE SUB DUP2 ADD SWAP1 PUSH2 0xAD SWAP2 SWAP1 PUSH2 0x506 JUMP JUMPDEST PUSH2 0x1A3 JUMP JUMPDEST PUSH1 0x40 MLOAD PUSH2 0xBF SWAP2 SWAP1 PUSH2 0x54C JUMP JUMPDEST PUSH1 0x40 MLOAD DUP1 SWAP2 SUB SWAP1 RETURN JUMPDEST PUSH2 0xD0 PUSH2 0x1BB JUMP JUMPDEST PUSH1 0x40 MLOAD PUSH2 0xDD SWAP2 SWAP1 PUSH2 0x44A JUMP JUMPDEST PUSH1 0x40 MLOAD DUP1 SWAP2 SUB SWAP1 RETURN JUMPDEST PUSH2 0x100 PUSH1 0x4 DUP1 CALLDATASIZE SUB DUP2 ADD SWAP1 PUSH2 0xFB SWAP2 SWAP1 PUSH2 0x593 JUMP JUMPDEST PUSH2 0x249 JUMP JUMPDEST STOP JUMPDEST PUSH1 0x1 DUP1 SLOAD PUSH2 0x10F SWAP1 PUSH2 0x602 JUMP JUMPDEST DUP1 PUSH1 0x1F ADD PUSH1 0x20 DUP1 SWAP2 DIV MUL PUSH1 0x20 ADD PUSH1 0x40 MLOAD SWAP1 DUP2 ADD PUSH1 0x40 MSTORE DUP1 SWAP3 SWAP2 SWAP1 DUP2 DUP2 MSTORE PUSH1 0x20 ADD DUP3 DUP1 SLOAD PUSH2 0x13B SWAP1 PUSH2 0x602 JUMP JUMPDEST DUP1 ISZERO PUSH2 0x188 JUMPI DUP1 PUSH1 0x1F LT PUSH2 0x15D JUMPI PUSH2 0x100 DUP1 DUP4 SLOAD DIV MUL DUP4 MSTORE SWAP2 PUSH1 0x20 ADD SWAP2 PUSH2 0x188 JUMP JUMPDEST DUP3 ADD SWAP2 SWAP1 PUSH1 0x0 MSTORE PUSH1 0x20 PUSH1 0x0 KECCAK256 SWAP1 JUMPDEST DUP2 SLOAD DUP2 MSTORE SWAP1 PUSH1 0x1 ADD SWAP1 PUSH1 0x20 ADD DUP1 DUP4 GT PUSH2 0x16B JUMPI DUP3 SWAP1 SUB PUSH1 0x1F AND DUP3 ADD SWAP2 JUMPDEST POP POP POP POP POP DUP2 JUMP JUMPDEST PUSH1 0x3 PUSH1 0x0 SWAP1 SLOAD SWAP1 PUSH2 0x100 EXP SWAP1 DIV PUSH1 0xFF AND DUP2 JUMP JUMPDEST PUSH1 0x0 PUSH1 0x20 MSTORE DUP1 PUSH1 0x0 MSTORE PUSH1 0x40 PUSH1 0x0 KECCAK256 PUSH1 0x0 SWAP2 POP SWAP1 POP SLOAD DUP2 JUMP JUMPDEST PUSH1 0x2 DUP1 SLOAD PUSH2 0x1C8 SWAP1 PUSH2 0x602 JUMP JUMPDEST DUP1 PUSH1 0x1F ADD PUSH1 0x20 DUP1 SWAP2 DIV MUL PUSH1 0x20 ADD PUSH1 0x40 MLOAD SWAP1 DUP2 ADD PUSH1 0x40 MSTORE DUP1 SWAP3 SWAP2 SWAP1 DUP2 DUP2 MSTORE PUSH1 0x20 ADD DUP3 DUP1 SLOAD PUSH2 0x1F4 SWAP1 PUSH2 0x602 JUMP JUMPDEST DUP1 ISZERO PUSH2 0x241 JUMPI DUP1 PUSH1 0x1F LT PUSH2 0x216 JUMPI PUSH2 0x100 DUP1 DUP4 SLOAD DIV MUL DUP4 MSTORE SWAP2 PUSH1 0x20 ADD SWAP2 PUSH2 0x241 JUMP JUMPDEST DUP3 ADD SWAP2 SWAP1 PUSH1 0x0 MSTORE PUSH1 0x20 PUSH1 0x0 KECCAK256 SWAP1 JUMPDEST DUP2 SLOAD DUP2 MSTORE SWAP1 PUSH1 0x1 ADD SWAP1 PUSH1 0x20 ADD DUP1 DUP4 GT PUSH2 0x224 JUMPI DUP3 SWAP1 SUB PUSH1 0x1F AND DUP3 ADD SWAP2 JUMPDEST POP POP POP POP POP DUP2 JUMP JUMPDEST PUSH1 0x0 DUP1 PUSH1 0x0 CALLER PUSH20 0xFFFFFFFFFFFFFFFFFFFFFFFFFFFFFFFFFFFFFFFF AND PUSH20 0xFFFFFFFFFFFFFFFFFFFFFFFFFFFFFFFFFFFFFFFF AND DUP2 MSTORE PUSH1 0x20 ADD SWAP1 DUP2 MSTORE PUSH1 0x20 ADD PUSH1 0x0 KECCAK256 SLOAD SWAP1 POP PUSH1 0x0 DUP1 PUSH1 0x0 DUP6 PUSH20 0xFFFFFFFFFFFFFFFFFFFFFFFFFFFFFFFFFFFFFFFF AND PUSH20 0xFFFFFFFFFFFFFFFFFFFFFFFFFFFFFFFFFFFFFFFF AND DUP2 MSTORE PUSH1 0x20 ADD SWAP1 DUP2 MSTORE PUSH1 0x20 ADD PUSH1 0x0 KECCAK256 SLOAD SWAP1 POP DUP2 DUP4 GT ISZERO PUSH2 0x312 JUMPI PUSH1 0x40 MLOAD PUSH32 0x8C379A000000000000000000000000000000000000000000000000000000000 DUP2 MSTORE PUSH1 0x4 ADD PUSH2 0x309 SWAP1 PUSH2 0x6A5 JUMP JUMPDEST PUSH1 0x40 MLOAD DUP1 SWAP2 SUB SWAP1 REVERT JUMPDEST DUP3 DUP3 PUSH2 0x31E SWAP2 SWAP1 PUSH2 0x6F4 JUMP JUMPDEST SWAP2 POP DUP3 DUP2 PUSH2 0x32C SWAP2 SWAP1 PUSH2 0x728 JUMP JUMPDEST SWAP1 POP DUP2 PUSH1 0x0 DUP1 CALLER PUSH20 0xFFFFFFFFFFFFFFFFFFFFFFFFFFFFFFFFFFFFFFFF AND PUSH20 0xFFFFFFFFFFFFFFFFFFFFFFFFFFFFFFFFFFFFFFFF AND DUP2 MSTORE PUSH1 0x20 ADD SWAP1 DUP2 MSTORE PUSH1 0x20 ADD PUSH1 0x0 KECCAK256 DUP2 SWAP1 SSTORE POP DUP1 PUSH1 0x0 DUP1 DUP7 PUSH20 0xFFFFFFFFFFFFFFFFFFFFFFFFFFFFFFFFFFFFFFFF AND PUSH20 0xFFFFFFFFFFFFFFFFFFFFFFFFFFFFFFFFFFFFFFFF AND DUP2 MSTORE PUSH1 0x20 ADD SWAP1 DUP2 MSTORE PUSH1 0x20 ADD PUSH1 0x0 KECCAK256 DUP2 SWAP1 SSTORE POP POP POP POP POP JUMP JUMPDEST PUSH1 0x0 DUP2 MLOAD SWAP1 POP SWAP2 SWAP1 POP JUMP JUMPDEST PUSH1 0x0 DUP3 DUP3 MSTORE PUSH1 0x20 DUP3 ADD SWAP1 POP SWAP3 SWAP2 POP POP JUMP JUMPDEST PUSH1 0x0 JUMPDEST DUP4 DUP2 LT ISZERO PUSH2 0x3F4 JUMPI DUP1 DUP3 ADD MLOAD DUP2 DUP5 ADD MSTORE PUSH1 0x20 DUP2 ADD SWAP1 POP PUSH2 0x3D9 JUMP JUMPDEST PUSH1 0x0 DUP5 DUP5 ADD MSTORE POP POP POP POP JUMP JUMPDEST PUSH1 0x0 PUSH1 0x1F NOT PUSH1 0x1F DUP4 ADD AND SWAP1 POP SWAP2 SWAP1 POP JUMP JUMPDEST PUSH1 0x0 PUSH2 0x41C DUP3 PUSH2 0x3BA JUMP JUMPDEST PUSH2 0x426 DUP2 DUP6 PUSH2 0x3C5 JUMP JUMPDEST SWAP4 POP PUSH2 0x436 DUP2 DUP6 PUSH1 0x20 DUP7 ADD PUSH2 0x3D6 JUMP JUMPDEST PUSH2 0x43F DUP2 PUSH2 0x400 JUMP JUMPDEST DUP5 ADD SWAP2 POP POP SWAP3 SWAP2 POP POP JUMP JUMPDEST PUSH1 0x0 PUSH1 0x20 DUP3 ADD SWAP1 POP DUP2 DUP2 SUB PUSH1 0x0 DUP4 ADD MSTORE PUSH2 0x464 DUP2 DUP5 PUSH2 0x411 JUMP JUMPDEST SWAP1 POP SWAP3 SWAP2 POP POP JUMP JUMPDEST PUSH1 0x0 PUSH1 0xFF DUP3 AND SWAP1 POP SWAP2 SWAP1 POP JUMP JUMPDEST PUSH2 0x482 DUP2 PUSH2 0x46C JUMP JUMPDEST DUP3 MSTORE POP POP JUMP JUMPDEST PUSH1 0x0 PUSH1 0x20 DUP3 ADD SWAP1 POP PUSH2 0x49D PUSH1 0x0 DUP4 ADD DUP5 PUSH2 0x479 JUMP JUMPDEST SWAP3 SWAP2 POP POP JUMP JUMPDEST PUSH1 0x0 DUP1 REVERT JUMPDEST PUSH1 0x0 PUSH20 0xFFFFFFFFFFFFFFFFFFFFFFFFFFFFFFFFFFFFFFFF DUP3 AND SWAP1 POP SWAP2 SWAP1 POP JUMP JUMPDEST PUSH1 0x0 PUSH2 0x4D3 DUP3 PUSH2 0x4A8 JUMP JUMPDEST SWAP1 POP SWAP2 SWAP1 POP JUMP JUMPDEST PUSH2 0x4E3 DUP2 PUSH2 0x4C8 JUMP JUMPDEST DUP2 EQ PUSH2 0x4EE JUMPI PUSH1 0x0 DUP1 REVERT JUMPDEST POP JUMP JUMPDEST PUSH1 0x0 DUP2 CALLDATALOAD SWAP1 POP PUSH2 0x500 DUP2 PUSH2 0x4DA JUMP JUMPDEST SWAP3 SWAP2 POP POP JUMP JUMPDEST PUSH1 0x0 PUSH1 0x20 DUP3 DUP5 SUB SLT ISZERO PUSH2 0x51C JUMPI PUSH2 0x51B PUSH2 0x4A3 JUMP JUMPDEST JUMPDEST PUSH1 0x0 PUSH2 0x52A DUP5 DUP3 DUP6 ADD PUSH2 0x4F1 JUMP JUMPDEST SWAP2 POP POP SWAP3 SWAP2 POP POP JUMP JUMPDEST PUSH1 0x0 DUP2 SWAP1 POP SWAP2 SWAP1 POP JUMP JUMPDEST PUSH2 0x546 DUP2 PUSH2 0x533 JUMP JUMPDEST DUP3 MSTORE POP POP JUMP JUMPDEST PUSH1 0x0 PUSH1 0x20 DUP3 ADD SWAP1 POP PUSH2 0x561 PUSH1 0x0 DUP4 ADD DUP5 PUSH2 0x53D JUMP JUMPDEST SWAP3 SWAP2 POP POP JUMP JUMPDEST PUSH2 0x570 DUP2 PUSH2 0x533 JUMP JUMPDEST DUP2 EQ PUSH2 0x57B JUMPI PUSH1 0x0 DUP1 REVERT JUMPDEST POP JUMP JUMPDEST PUSH1 0x0 DUP2 CALLDATALOAD SWAP1 POP PUSH2 0x58D DUP2 PUSH2 0x567 JUMP JUMPDEST SWAP3 SWAP2 POP POP JUMP JUMPDEST PUSH1 0x0 DUP1 PUSH1 0x40 DUP4 DUP6 SUB SLT ISZERO PUSH2 0x5AA JUMPI PUSH2 0x5A9 PUSH2 0x4A3 JUMP JUMPDEST JUMPDEST PUSH1 0x0 PUSH2 0x5B8 DUP6 DUP3 DUP7 ADD PUSH2 0x4F1 JUMP JUMPDEST SWAP3 POP POP PUSH1 0x20 PUSH2 0x5C9 DUP6 DUP3 DUP7 ADD PUSH2 0x57E JUMP JUMPDEST SWAP2 POP POP SWAP3 POP SWAP3 SWAP1 POP JUMP JUMPDEST PUSH32 0x4E487B7100000000000000000000000000000000000000000000000000000000 PUSH1 0x0 MSTORE PUSH1 0x22 PUSH1 0x4 MSTORE PUSH1 0x24 PUSH1 0x0 REVERT JUMPDEST PUSH1 0x0 PUSH1 0x2 DUP3 DIV SWAP1 POP PUSH1 0x1 DUP3 AND DUP1 PUSH2 0x61A JUMPI PUSH1 0x7F DUP3 AND SWAP2 POP JUMPDEST PUSH1 0x20 DUP3 LT DUP2 SUB PUSH2 0x62D JUMPI PUSH2 0x62C PUSH2 0x5D3 JUMP JUMPDEST JUMPDEST POP SWAP2 SWAP1 POP JUMP JUMPDEST PUSH32 0x66726F6D206163636F756E7420646F206E6F74206861766520656E6F75676820 PUSH1 0x0 DUP3 ADD MSTORE PUSH32 0x6D6F6E6579210000000000000000000000000000000000000000000000000000 PUSH1 0x20 DUP3 ADD MSTORE POP JUMP JUMPDEST PUSH1 0x0 PUSH2 0x68F PUSH1 0x26 DUP4 PUSH2 0x3C5 JUMP JUMPDEST SWAP2 POP PUSH2 0x69A DUP3 PUSH2 0x633 JUMP JUMPDEST PUSH1 0x40 DUP3 ADD SWAP1 POP SWAP2 SWAP1 POP JUMP JUMPDEST PUSH1 0x0 PUSH1 0x20 DUP3 ADD SWAP1 POP DUP2 DUP2 SUB PUSH1 0x0 DUP4 ADD MSTORE PUSH2 0x6BE DUP2 PUSH2 0x682 JUMP JUMPDEST SWAP1 POP SWAP2 SWAP1 POP JUMP JUMPDEST PUSH32 0x4E487B7100000000000000000000000000000000000000000000000000000000 PUSH1 0x0 MSTORE PUSH1 0x11 PUSH1 0x4 MSTORE PUSH1 0x24 PUSH1 0x0 REVERT JUMPDEST PUSH1 0x0 PUSH2 0x6FF DUP3 PUSH2 0x533 JUMP JUMPDEST SWAP2 POP PUSH2 0x70A DUP4 PUSH2 0x533 JUMP JUMPDEST SWAP3 POP DUP3 DUP3 SUB SWAP1 POP DUP2 DUP2 GT ISZERO PUSH2 0x722 JUMPI PUSH2 0x721 PUSH2 0x6C5 JUMP JUMPDEST JUMPDEST SWAP3 SWAP2 POP POP JUMP JUMPDEST PUSH1 0x0 PUSH2 0x733 DUP3 PUSH2 0x533 JUMP JUMPDEST SWAP2 POP PUSH2 0x73E DUP4 PUSH2 0x533 JUMP JUMPDEST SWAP3 POP DUP3 DUP3 ADD SWAP1 POP DUP1 DUP3 GT ISZERO PUSH2 0x756 JUMPI PUSH2 0x755 PUSH2 0x6C5 JUMP JUMPDEST JUMPDEST SWAP3 SWAP2 POP POP JUMP INVALID LOG2 PUSH5 0x6970667358 0x22 SLT KECCAK256 0x26 0xE3 SWAP14 0x4C POP PUSH9 0x6B683C05B1FC80A04A 0xCF 0xD6 0xDD LOG1 LT DIV 0xCC PUSH27 0x22007874F6DF9F87C564736F6C6343000812003300000000000000 "
		},
		"gasEstimates": {
			"creation": {
				"codeDepositCost": "387600",
				"executionCost": "infinite",
				"totalCost": "infinite"
			},
			"external": {
				"balanceOf(address)": "2836",
				"decimals()": "2471",
				"name()": "infinite",
				"symbol()": "infinite",
				"transfer(address,uint256)": "infinite"
			}
		},
		"methodIdentifiers": {
			"balanceOf(address)": "70a08231",
			"decimals()": "313ce567",
			"name()": "06fdde03",
			"symbol()": "95d89b41",
			"transfer(address,uint256)": "a9059cbb"
		}
	},
	"abi": [
		{
			"inputs": [
				{
					"internalType": "uint256",
					"name": "totalBalance",
					"type": "uint256"
				}
			],
			"stateMutability": "nonpayable",
			"type": "constructor"
		},
		{
			"inputs": [
				{
					"internalType": "address",
					"name": "",
					"type": "address"
				}
			],
			"name": "balanceOf",
			"outputs": [
				{
					"internalType": "uint256",
					"name": "",
					"type": "uint256"
				}
			],
			"stateMutability": "view",
			"type": "function"
		},
		{
			"inputs": [],
			"name": "decimals",
			"outputs": [
				{
					"internalType": "uint8",
					"name": "",
					"type": "uint8"
				}
			],
			"stateMutability": "view",
			"type": "function"
		},
		{
			"inputs": [],
			"name": "name",
			"outputs": [
				{
					"internalType": "string",
					"name": "",
					"type": "string"
				}
			],
			"stateMutability": "view",
			"type": "function"
		},
		{
			"inputs": [],
			"name": "symbol",
			"outputs": [
				{
					"internalType": "string",
					"name": "",
					"type": "string"
				}
			],
			"stateMutability": "view",
			"type": "function"
		},
		{
			"inputs": [
				{
					"internalType": "address",
					"name": "to",
					"type": "address"
				},
				{
					"internalType": "uint256",
					"name": "amount",
					"type": "uint256"
				}
			],
			"name": "transfer",
			"outputs": [],
			"stateMutability": "nonpayable",
			"type": "function"
		}
	]
}